{
  "_format": "hh-sol-artifact-1",
  "contractName": "_10MBTaxOracle",
  "sourceName": "contracts/TaxOracle.sol",
  "abi": [
    {
      "inputs": [
        {
          "internalType": "address",
          "name": "__10MB",
          "type": "address"
        },
        {
          "internalType": "address",
          "name": "_USDT",
          "type": "address"
        },
        {
          "internalType": "address",
          "name": "_pair",
          "type": "address"
        }
      ],
      "stateMutability": "nonpayable",
      "type": "constructor"
    },
    {
      "anonymous": false,
      "inputs": [
        {
          "indexed": true,
          "internalType": "address",
          "name": "previousOwner",
          "type": "address"
        },
        {
          "indexed": true,
          "internalType": "address",
          "name": "newOwner",
          "type": "address"
        }
      ],
      "name": "OwnershipTransferred",
      "type": "event"
    },
    {
      "inputs": [],
      "name": "_10MB",
      "outputs": [
        {
          "internalType": "contract IERC20",
          "name": "",
          "type": "address"
        }
      ],
      "stateMutability": "view",
      "type": "function"
    },
    {
      "inputs": [
        {
          "internalType": "address",
          "name": "_token",
          "type": "address"
        },
        {
          "internalType": "uint256",
          "name": "_amountIn",
          "type": "uint256"
        }
      ],
      "name": "consult",
      "outputs": [
        {
          "internalType": "uint144",
          "name": "amountOut",
          "type": "uint144"
        }
      ],
      "stateMutability": "view",
      "type": "function"
    },
    {
      "inputs": [],
      "name": "owner",
      "outputs": [
        {
          "internalType": "address",
          "name": "",
          "type": "address"
        }
      ],
      "stateMutability": "view",
      "type": "function"
    },
    {
      "inputs": [],
      "name": "pair",
      "outputs": [
        {
          "internalType": "address",
          "name": "",
          "type": "address"
        }
      ],
      "stateMutability": "view",
      "type": "function"
    },
    {
      "inputs": [],
      "name": "renounceOwnership",
      "outputs": [],
      "stateMutability": "nonpayable",
      "type": "function"
    },
    {
      "inputs": [
        {
          "internalType": "address",
          "name": "__10MB",
          "type": "address"
        }
      ],
      "name": "set10MB",
      "outputs": [],
      "stateMutability": "nonpayable",
      "type": "function"
    },
    {
      "inputs": [
        {
          "internalType": "address",
          "name": "_pair",
          "type": "address"
        }
      ],
      "name": "setPair",
      "outputs": [],
      "stateMutability": "nonpayable",
      "type": "function"
    },
    {
      "inputs": [
        {
          "internalType": "address",
          "name": "_USDT",
          "type": "address"
        }
      ],
      "name": "setUSDT",
      "outputs": [],
      "stateMutability": "nonpayable",
      "type": "function"
    },
    {
      "inputs": [
        {
          "internalType": "address",
          "name": "newOwner",
          "type": "address"
        }
      ],
      "name": "transferOwnership",
      "outputs": [],
      "stateMutability": "nonpayable",
      "type": "function"
    },
    {
      "inputs": [],
      "name": "USDT",
      "outputs": [
        {
          "internalType": "contract IERC20",
          "name": "",
          "type": "address"
        }
      ],
      "stateMutability": "view",
      "type": "function"
    }
  ],
  "bytecode": "0x608060405234801561001057600080fd5b5060405161097338038061097383398101604081905261002f916101ed565b61003833610181565b6001600160a01b0383166100935760405162461bcd60e51b815260206004820152601960248201527f5f31306d6220616464726573732063616e6e6f7420626520300000000000000060448201526064015b60405180910390fd5b6001600160a01b0382166100e95760405162461bcd60e51b815260206004820152601860248201527f7573647420616464726573732063616e6e6f7420626520300000000000000000604482015260640161008a565b6001600160a01b03811661013f5760405162461bcd60e51b815260206004820152601860248201527f7061697220616464726573732063616e6e6f7420626520300000000000000000604482015260640161008a565b600180546001600160a01b039485166001600160a01b03199182161790915560028054938516938216939093179092556003805491909316911617905561022f565b600080546001600160a01b038381166001600160a01b0319831681178455604051919092169283917f8be0079c531659141344cd1fd0a4f28419497f9722a3daafe3b4186f6b6457e09190a35050565b80516001600160a01b03811681146101e857600080fd5b919050565b600080600060608486031215610201578283fd5b61020a846101d1565b9250610218602085016101d1565b9150610226604085016101d1565b90509250925092565b6107358061023e6000396000f3fe608060405234801561001057600080fd5b506004361061009e5760003560e01c80638187f516116100665780638187f516146101395780638da5cb5b1461014c578063a8aa1b311461015d578063b601219d14610170578063f2fde38b146101835761009e565b80632f48ab7d146100a35780633ddac953146100d357806358979bfe1461010957806365b7ff0a1461011e578063715018a614610131575b600080fd5b6002546100b6906001600160a01b031681565b6040516001600160a01b0390911681526020015b60405180910390f35b6100e66100e1366004610669565b610196565b60405171ffffffffffffffffffffffffffffffffffff90911681526020016100ca565b61011c61011736600461064f565b610319565b005b61011c61012c36600461064f565b6103bb565b61011c61045d565b61011c61014736600461064f565b610493565b6000546001600160a01b03166100b6565b6003546100b6906001600160a01b031681565b6001546100b6906001600160a01b031681565b61011c61019136600461064f565b610535565b6001546000906001600160a01b038481169116146101fb5760405162461bcd60e51b815260206004820152601760248201527f746f6b656e206e6565647320746f206265205f31306d6200000000000000000060448201526064015b60405180910390fd5b6001546003546040516370a0823160e01b81526001600160a01b03918216600482015260009291909116906370a082319060240160206040518083038186803b15801561024757600080fd5b505afa15801561025b573d6000803e3d6000fd5b505050506040513d601f19601f8201168201806040525081019061027f9190610692565b6002546003546040516370a0823160e01b81526001600160a01b0391821660048201529293506000929116906370a082319060240160206040518083038186803b1580156102cc57600080fd5b505afa1580156102e0573d6000803e3d6000fd5b505050506040513d601f19601f820116820180604052508101906103049190610692565b905061031082826105d0565b95945050505050565b6000546001600160a01b031633146103435760405162461bcd60e51b81526004016101f2906106aa565b6001600160a01b0381166103995760405162461bcd60e51b815260206004820152601860248201527f7573647420616464726573732063616e6e6f742062652030000000000000000060448201526064016101f2565b600280546001600160a01b0319166001600160a01b0392909216919091179055565b6000546001600160a01b031633146103e55760405162461bcd60e51b81526004016101f2906106aa565b6001600160a01b03811661043b5760405162461bcd60e51b815260206004820152601960248201527f5f31306d6220616464726573732063616e6e6f7420626520300000000000000060448201526064016101f2565b600180546001600160a01b0319166001600160a01b0392909216919091179055565b6000546001600160a01b031633146104875760405162461bcd60e51b81526004016101f2906106aa565b61049160006105e3565b565b6000546001600160a01b031633146104bd5760405162461bcd60e51b81526004016101f2906106aa565b6001600160a01b0381166105135760405162461bcd60e51b815260206004820152601860248201527f7061697220616464726573732063616e6e6f742062652030000000000000000060448201526064016101f2565b600380546001600160a01b0319166001600160a01b0392909216919091179055565b6000546001600160a01b0316331461055f5760405162461bcd60e51b81526004016101f2906106aa565b6001600160a01b0381166105c45760405162461bcd60e51b815260206004820152602660248201527f4f776e61626c653a206e6577206f776e657220697320746865207a65726f206160448201526564647265737360d01b60648201526084016101f2565b6105cd816105e3565b50565b60006105dc82846106df565b9392505050565b600080546001600160a01b038381166001600160a01b0319831681178455604051919092169283917f8be0079c531659141344cd1fd0a4f28419497f9722a3daafe3b4186f6b6457e09190a35050565b80356001600160a01b038116811461064a57600080fd5b919050565b600060208284031215610660578081fd5b6105dc82610633565b6000806040838503121561067b578081fd5b61068483610633565b946020939093013593505050565b6000602082840312156106a3578081fd5b5051919050565b6020808252818101527f4f776e61626c653a2063616c6c6572206973206e6f7420746865206f776e6572604082015260600190565b6000826106fa57634e487b7160e01b81526012600452602481fd5b50049056fea2646970667358221220acc038b5b9f49d111a3c3000ca3fec5933b8551159b573e3b7bf66178dd8dbea64736f6c63430008030033",
  "linkReferences": {},
  "deployedLinkReferences": {}
}