{
  "_format": "hh-sol-artifact-1",
  "contractName": "_10MB",
  "sourceName": "contracts/tokens/_10MB.sol",
  "abi": [
    {
      "inputs": [
        {
          "internalType": "uint256",
          "name": "_taxRate",
          "type": "uint256"
        },
        {
          "internalType": "address",
          "name": "_taxCollectorAddress",
          "type": "address"
        }
      ],
      "stateMutability": "nonpayable",
      "type": "constructor"
    },
    {
      "anonymous": false,
      "inputs": [
        {
          "indexed": true,
          "internalType": "address",
          "name": "owner",
          "type": "address"
        },
        {
          "indexed": true,
          "internalType": "address",
          "name": "spender",
          "type": "address"
        },
        {
          "indexed": false,
          "internalType": "uint256",
          "name": "value",
          "type": "uint256"
        }
      ],
      "name": "Approval",
      "type": "event"
    },
    {
      "anonymous": false,
      "inputs": [
        {
          "indexed": true,
          "internalType": "address",
          "name": "previousOperator",
          "type": "address"
        },
        {
          "indexed": true,
          "internalType": "address",
          "name": "newOperator",
          "type": "address"
        }
      ],
      "name": "OperatorTransferred",
      "type": "event"
    },
    {
      "anonymous": false,
      "inputs": [
        {
          "indexed": true,
          "internalType": "address",
          "name": "previousOwner",
          "type": "address"
        },
        {
          "indexed": true,
          "internalType": "address",
          "name": "newOwner",
          "type": "address"
        }
      ],
      "name": "OwnershipTransferred",
      "type": "event"
    },
    {
      "anonymous": false,
      "inputs": [
        {
          "indexed": false,
          "internalType": "address",
          "name": "oldAddress",
          "type": "address"
        },
        {
          "indexed": false,
          "internalType": "address",
          "name": "newAddress",
          "type": "address"
        }
      ],
      "name": "TaxOfficeTransferred",
      "type": "event"
    },
    {
      "anonymous": false,
      "inputs": [
        {
          "indexed": true,
          "internalType": "address",
          "name": "from",
          "type": "address"
        },
        {
          "indexed": true,
          "internalType": "address",
          "name": "to",
          "type": "address"
        },
        {
          "indexed": false,
          "internalType": "uint256",
          "name": "value",
          "type": "uint256"
        }
      ],
      "name": "Transfer",
      "type": "event"
    },
    {
      "inputs": [
        {
          "internalType": "address",
          "name": "owner",
          "type": "address"
        },
        {
          "internalType": "address",
          "name": "spender",
          "type": "address"
        }
      ],
      "name": "allowance",
      "outputs": [
        {
          "internalType": "uint256",
          "name": "",
          "type": "uint256"
        }
      ],
      "stateMutability": "view",
      "type": "function"
    },
    {
      "inputs": [
        {
          "internalType": "address",
          "name": "spender",
          "type": "address"
        },
        {
          "internalType": "uint256",
          "name": "amount",
          "type": "uint256"
        }
      ],
      "name": "approve",
      "outputs": [
        {
          "internalType": "bool",
          "name": "",
          "type": "bool"
        }
      ],
      "stateMutability": "nonpayable",
      "type": "function"
    },
    {
      "inputs": [],
      "name": "autoCalculateTax",
      "outputs": [
        {
          "internalType": "bool",
          "name": "",
          "type": "bool"
        }
      ],
      "stateMutability": "view",
      "type": "function"
    },
    {
      "inputs": [
        {
          "internalType": "address",
          "name": "account",
          "type": "address"
        }
      ],
      "name": "balanceOf",
      "outputs": [
        {
          "internalType": "uint256",
          "name": "",
          "type": "uint256"
        }
      ],
      "stateMutability": "view",
      "type": "function"
    },
    {
      "inputs": [
        {
          "internalType": "uint256",
          "name": "amount",
          "type": "uint256"
        }
      ],
      "name": "burn",
      "outputs": [],
      "stateMutability": "nonpayable",
      "type": "function"
    },
    {
      "inputs": [
        {
          "internalType": "address",
          "name": "account",
          "type": "address"
        },
        {
          "internalType": "uint256",
          "name": "amount",
          "type": "uint256"
        }
      ],
      "name": "burnFrom",
      "outputs": [],
      "stateMutability": "nonpayable",
      "type": "function"
    },
    {
      "inputs": [],
      "name": "burnThreshold",
      "outputs": [
        {
          "internalType": "uint256",
          "name": "",
          "type": "uint256"
        }
      ],
      "stateMutability": "view",
      "type": "function"
    },
    {
      "inputs": [],
      "name": "decimals",
      "outputs": [
        {
          "internalType": "uint8",
          "name": "",
          "type": "uint8"
        }
      ],
      "stateMutability": "view",
      "type": "function"
    },
    {
      "inputs": [
        {
          "internalType": "address",
          "name": "spender",
          "type": "address"
        },
        {
          "internalType": "uint256",
          "name": "subtractedValue",
          "type": "uint256"
        }
      ],
      "name": "decreaseAllowance",
      "outputs": [
        {
          "internalType": "bool",
          "name": "",
          "type": "bool"
        }
      ],
      "stateMutability": "nonpayable",
      "type": "function"
    },
    {
      "inputs": [],
      "name": "disableAutoCalculateTax",
      "outputs": [],
      "stateMutability": "nonpayable",
      "type": "function"
    },
    {
      "inputs": [],
      "name": "enableAutoCalculateTax",
      "outputs": [],
      "stateMutability": "nonpayable",
      "type": "function"
    },
    {
      "inputs": [
        {
          "internalType": "address",
          "name": "_address",
          "type": "address"
        }
      ],
      "name": "excludeAddress",
      "outputs": [
        {
          "internalType": "bool",
          "name": "",
          "type": "bool"
        }
      ],
      "stateMutability": "nonpayable",
      "type": "function"
    },
    {
      "inputs": [
        {
          "internalType": "address",
          "name": "",
          "type": "address"
        }
      ],
      "name": "excludedAddresses",
      "outputs": [
        {
          "internalType": "bool",
          "name": "",
          "type": "bool"
        }
      ],
      "stateMutability": "view",
      "type": "function"
    },
    {
      "inputs": [],
      "name": "getTaxTiersRatesCount",
      "outputs": [
        {
          "internalType": "uint256",
          "name": "count",
          "type": "uint256"
        }
      ],
      "stateMutability": "view",
      "type": "function"
    },
    {
      "inputs": [],
      "name": "getTaxTiersTwapsCount",
      "outputs": [
        {
          "internalType": "uint256",
          "name": "count",
          "type": "uint256"
        }
      ],
      "stateMutability": "view",
      "type": "function"
    },
    {
      "inputs": [
        {
          "internalType": "address",
          "name": "_address",
          "type": "address"
        }
      ],
      "name": "includeAddress",
      "outputs": [
        {
          "internalType": "bool",
          "name": "",
          "type": "bool"
        }
      ],
      "stateMutability": "nonpayable",
      "type": "function"
    },
    {
      "inputs": [
        {
          "internalType": "address",
          "name": "spender",
          "type": "address"
        },
        {
          "internalType": "uint256",
          "name": "addedValue",
          "type": "uint256"
        }
      ],
      "name": "increaseAllowance",
      "outputs": [
        {
          "internalType": "bool",
          "name": "",
          "type": "bool"
        }
      ],
      "stateMutability": "nonpayable",
      "type": "function"
    },
    {
      "inputs": [
        {
          "internalType": "address",
          "name": "_address",
          "type": "address"
        }
      ],
      "name": "isAddressExcluded",
      "outputs": [
        {
          "internalType": "bool",
          "name": "",
          "type": "bool"
        }
      ],
      "stateMutability": "view",
      "type": "function"
    },
    {
      "inputs": [],
      "name": "isOperator",
      "outputs": [
        {
          "internalType": "bool",
          "name": "",
          "type": "bool"
        }
      ],
      "stateMutability": "view",
      "type": "function"
    },
    {
      "inputs": [
        {
          "internalType": "address",
          "name": "recipient_",
          "type": "address"
        },
        {
          "internalType": "uint256",
          "name": "amount_",
          "type": "uint256"
        }
      ],
      "name": "mint",
      "outputs": [
        {
          "internalType": "bool",
          "name": "",
          "type": "bool"
        }
      ],
      "stateMutability": "nonpayable",
      "type": "function"
    },
    {
      "inputs": [],
      "name": "name",
      "outputs": [
        {
          "internalType": "string",
          "name": "",
          "type": "string"
        }
      ],
      "stateMutability": "view",
      "type": "function"
    },
    {
      "inputs": [],
      "name": "operator",
      "outputs": [
        {
          "internalType": "address",
          "name": "",
          "type": "address"
        }
      ],
      "stateMutability": "view",
      "type": "function"
    },
    {
      "inputs": [],
      "name": "oracle",
      "outputs": [
        {
          "internalType": "address",
          "name": "",
          "type": "address"
        }
      ],
      "stateMutability": "view",
      "type": "function"
    },
    {
      "inputs": [],
      "name": "owner",
      "outputs": [
        {
          "internalType": "address",
          "name": "",
          "type": "address"
        }
      ],
      "stateMutability": "view",
      "type": "function"
    },
    {
      "inputs": [],
      "name": "renounceOwnership",
      "outputs": [],
      "stateMutability": "nonpayable",
      "type": "function"
    },
    {
      "inputs": [
        {
          "internalType": "address",
          "name": "_oracle",
          "type": "address"
        }
      ],
      "name": "set10MBOracle",
      "outputs": [],
      "stateMutability": "nonpayable",
      "type": "function"
    },
    {
      "inputs": [
        {
          "internalType": "uint256",
          "name": "_burnThreshold",
          "type": "uint256"
        }
      ],
      "name": "setBurnThreshold",
      "outputs": [
        {
          "internalType": "bool",
          "name": "",
          "type": "bool"
        }
      ],
      "stateMutability": "nonpayable",
      "type": "function"
    },
    {
      "inputs": [
        {
          "internalType": "address",
          "name": "_taxCollectorAddress",
          "type": "address"
        }
      ],
      "name": "setTaxCollectorAddress",
      "outputs": [],
      "stateMutability": "nonpayable",
      "type": "function"
    },
    {
      "inputs": [
        {
          "internalType": "address",
          "name": "_taxOffice",
          "type": "address"
        }
      ],
      "name": "setTaxOffice",
      "outputs": [],
      "stateMutability": "nonpayable",
      "type": "function"
    },
    {
      "inputs": [
        {
          "internalType": "uint256",
          "name": "_taxRate",
          "type": "uint256"
        }
      ],
      "name": "setTaxRate",
      "outputs": [],
      "stateMutability": "nonpayable",
      "type": "function"
    },
    {
      "inputs": [
        {
          "internalType": "uint8",
          "name": "_index",
          "type": "uint8"
        },
        {
          "internalType": "uint256",
          "name": "_value",
          "type": "uint256"
        }
      ],
      "name": "setTaxTiersRate",
      "outputs": [
        {
          "internalType": "bool",
          "name": "",
          "type": "bool"
        }
      ],
      "stateMutability": "nonpayable",
      "type": "function"
    },
    {
      "inputs": [
        {
          "internalType": "uint8",
          "name": "_index",
          "type": "uint8"
        },
        {
          "internalType": "uint256",
          "name": "_value",
          "type": "uint256"
        }
      ],
      "name": "setTaxTiersTwap",
      "outputs": [
        {
          "internalType": "bool",
          "name": "",
          "type": "bool"
        }
      ],
      "stateMutability": "nonpayable",
      "type": "function"
    },
    {
      "inputs": [],
      "name": "symbol",
      "outputs": [
        {
          "internalType": "string",
          "name": "",
          "type": "string"
        }
      ],
      "stateMutability": "view",
      "type": "function"
    },
    {
      "inputs": [],
      "name": "taxCollectorAddress",
      "outputs": [
        {
          "internalType": "address",
          "name": "",
          "type": "address"
        }
      ],
      "stateMutability": "view",
      "type": "function"
    },
    {
      "inputs": [],
      "name": "taxOffice",
      "outputs": [
        {
          "internalType": "address",
          "name": "",
          "type": "address"
        }
      ],
      "stateMutability": "view",
      "type": "function"
    },
    {
      "inputs": [],
      "name": "taxRate",
      "outputs": [
        {
          "internalType": "uint256",
          "name": "",
          "type": "uint256"
        }
      ],
      "stateMutability": "view",
      "type": "function"
    },
    {
      "inputs": [
        {
          "internalType": "uint256",
          "name": "",
          "type": "uint256"
        }
      ],
      "name": "taxTiersRates",
      "outputs": [
        {
          "internalType": "uint256",
          "name": "",
          "type": "uint256"
        }
      ],
      "stateMutability": "view",
      "type": "function"
    },
    {
      "inputs": [
        {
          "internalType": "uint256",
          "name": "",
          "type": "uint256"
        }
      ],
      "name": "taxTiersTwaps",
      "outputs": [
        {
          "internalType": "uint256",
          "name": "",
          "type": "uint256"
        }
      ],
      "stateMutability": "view",
      "type": "function"
    },
    {
      "inputs": [],
      "name": "totalSupply",
      "outputs": [
        {
          "internalType": "uint256",
          "name": "",
          "type": "uint256"
        }
      ],
      "stateMutability": "view",
      "type": "function"
    },
    {
      "inputs": [
        {
          "internalType": "address",
          "name": "to",
          "type": "address"
        },
        {
          "internalType": "uint256",
          "name": "amount",
          "type": "uint256"
        }
      ],
      "name": "transfer",
      "outputs": [
        {
          "internalType": "bool",
          "name": "",
          "type": "bool"
        }
      ],
      "stateMutability": "nonpayable",
      "type": "function"
    },
    {
      "inputs": [
        {
          "internalType": "address",
          "name": "sender",
          "type": "address"
        },
        {
          "internalType": "address",
          "name": "recipient",
          "type": "address"
        },
        {
          "internalType": "uint256",
          "name": "amount",
          "type": "uint256"
        }
      ],
      "name": "transferFrom",
      "outputs": [
        {
          "internalType": "bool",
          "name": "",
          "type": "bool"
        }
      ],
      "stateMutability": "nonpayable",
      "type": "function"
    },
    {
      "inputs": [
        {
          "internalType": "address",
          "name": "newOperator_",
          "type": "address"
        }
      ],
      "name": "transferOperator",
      "outputs": [],
      "stateMutability": "nonpayable",
      "type": "function"
    },
    {
      "inputs": [
        {
          "internalType": "address",
          "name": "newOwner",
          "type": "address"
        }
      ],
      "name": "transferOwnership",
      "outputs": [],
      "stateMutability": "nonpayable",
      "type": "function"
    }
  ],
  "bytecode": "0x670f43fc2c04ee0000600a819055610240604052600060809081526706f05b59d3b2000060a052670853a0d2313c000060c0526709b6e64a8ec6000060e052670b1a2bc2ec50000061010052670c7d713b49da000061012052670d2f13f7789f000061014052670de0b6b3a764000061016052670e92596fd6290000610180526101a0919091526710a741a4627800006101c05267120a871cc00200006101e05267136dcc951d8c0000610200526714d1120d7b16000061022052620000ca90600c90600e620005a6565b50604080516101c0810182526107d0815261076c6020820152610708918101919091526106a4606082015261064060808201526105dc60a0820181905260c0820181905260e0820181905261010082015261057861012082015261038461014082015261019061016082015260c861018082015260646101a08201526200015690600d90600e62000601565b503480156200016457600080fd5b506040516200285b3803806200285b8339810160408190526200018791620006d9565b604080518082018252600480825263189836b160e11b602080840182815285518087019096529285528401528151919291620001c69160039162000645565b508051620001dc90600490602084019062000645565b505050620001f9620001f36200034d60201b60201c565b62000351565b600680546001600160a01b031916339081179091556040516000907f74da04524d50c64947f5dd5381ef1a4dca5cba8ed1d816243f9e48aa0b5617ed908290a36107d0821115620002915760405162461bcd60e51b815260206004820152601a60248201527f74617820657175616c206f72206c657373207468616e2032302500000000000060448201526064015b60405180910390fd5b6001600160a01b038116620003005760405162461bcd60e51b815260206004820152602e60248201527f74617820636f6c6c6563746f722061646472657373206d757374206265206e6f60448201526d6e2d7a65726f206164647265737360901b606482015260840162000288565b6200030b30620003a3565b506200032233692a5a058fc295ed000000620004c1565b600991909155600b80546001600160a01b0319166001600160a01b0390921691909117905562000778565b3390565b600580546001600160a01b038381166001600160a01b0319831681179093556040519116919082907f8be0079c531659141344cd1fd0a4f28419497f9722a3daafe3b4186f6b6457e090600090a35050565b6006546000906001600160a01b0316331480620003ca57506008546001600160a01b031633145b6200042d5760405162461bcd60e51b815260206004820152602c60248201527f43616c6c6572206973206e6f7420746865206f70657261746f72206f7220746860448201526b6520746178206f666669636560a01b606482015260840162000288565b6001600160a01b0382166000908152600e602052604090205460ff1615620004985760405162461bcd60e51b815260206004820152601960248201527f616464726573732063616e2774206265206578636c7564656400000000000000604482015260640162000288565b506001600160a01b03166000908152600e60205260409020805460ff1916600190811790915590565b6001600160a01b038216620005195760405162461bcd60e51b815260206004820152601f60248201527f45524332303a206d696e7420746f20746865207a65726f206164647265737300604482015260640162000288565b80600260008282546200052d919062000716565b90915550506001600160a01b038216600090815260208190526040812080548392906200055c90849062000716565b90915550506040518181526001600160a01b038316906000907fddf252ad1be2c89b69c2b068fc378daa952ba7f163c4a11628f55a4df523b3ef9060200160405180910390a35050565b828054828255906000526020600020908101928215620005ef579160200282015b82811115620005ef57825182906001600160401b0316905591602001919060010190620005c7565b50620005fd929150620006c2565b5090565b828054828255906000526020600020908101928215620005ef579160200282015b82811115620005ef578251829061ffff1690559160200191906001019062000622565b82805462000653906200073b565b90600052602060002090601f016020900481019282620006775760008555620005ef565b82601f106200069257805160ff1916838001178555620005ef565b82800160010185558215620005ef579182015b82811115620005ef578251825591602001919060010190620006a5565b5b80821115620005fd5760008155600101620006c3565b60008060408385031215620006ec578182fd5b825160208401519092506001600160a01b03811681146200070b578182fd5b809150509250929050565b600082198211156200073657634e487b7160e01b81526011600452602481fd5b500190565b600181811c908216806200075057607f821691505b602082108114156200077257634e487b7160e01b600052602260045260246000fd5b50919050565b6120d380620007886000396000f3fe608060405234801561001057600080fd5b50600436106102695760003560e01c806370a0823111610151578063a6431bba116100c3578063cf011b2611610087578063cf011b2614610530578063dd62ed3e14610553578063ebca1bd91461058c578063ee2a9535146105b8578063f2fde38b146105c0578063ff87fc7c146105d357610269565b8063a6431bba146104dc578063a9059cbb146104e4578063b87c5a4a146104f7578063c3bdf6131461050a578063c6d69a301461051d57610269565b80638d3cc818116101155780638d3cc818146104765780638da5cb5b1461048a57806393995d4b1461049b57806395d89b41146104ae5780639d6b5f21146104b6578063a457c2d7146104c957610269565b806370a0823114610416578063715018a61461043f578063771a3a1d1461044757806379cc6790146104505780637dc0d1d01461046357610269565b80633f07d76a116101ea5780634f6d38d0116101ae5780634f6d38d0146103bb578063570ca735146103c45780635c29908d146103d557806365bbacd9146103e857806366206ce9146103f057806369356d471461040357610269565b80633f07d76a1461035c57806340c10f191461036f57806342966c681461038257806342c6b4f1146103955780634456eda2146103a857610269565b806329605e771161023157806329605e77146102e9578063313ce567146102fc5780633758e6ce1461030b578063395093511461031e5780633e5f13d41461033157610269565b806306fdde031461026e578063095ea7b31461028c57806318160ddd146102af57806323b872dd146102c1578063273b865d146102d4575b600080fd5b6102766105db565b6040516102839190611dbe565b60405180910390f35b61029f61029a366004611d34565b61066e565b6040519015158152602001610283565b6002545b604051908152602001610283565b61029f6102cf366004611cf9565b610686565b6102e76102e2366004611cad565b610753565b005b6102e76102f7366004611cad565b61081e565b60405160128152602001610283565b61029f610319366004611cad565b610854565b61029f61032c366004611d34565b61092c565b600854610344906001600160a01b031681565b6040516001600160a01b039091168152602001610283565b6102e761036a366004611cad565b610966565b61029f61037d366004611d34565b610a73565b6102e7610390366004611d84565b610ae8565b6102b36103a3366004611d84565b610af1565b6006546001600160a01b0316331461029f565b6102b3600a5481565b6006546001600160a01b0316610344565b6102b36103e3366004611d84565b610b12565b6102e7610b22565b61029f6103fe366004611d9c565b610b5b565b6102e7610411366004611cad565b610ce7565b6102b3610424366004611cad565b6001600160a01b031660009081526020819052604090205490565b6102e7610da0565b6102b360095481565b6102e761045e366004611d34565b610dd6565b600754610344906001600160a01b031681565b600b5461029f90600160a01b900460ff1681565b6005546001600160a01b0316610344565b61029f6104a9366004611cad565b610e0e565b610276610edd565b61029f6104c4366004611d84565b610eec565b61029f6104d7366004611d34565b610f22565b600c546102b3565b61029f6104f2366004611d34565b610fbf565b61029f610505366004611d9c565b610fcd565b600b54610344906001600160a01b031681565b6102e761052b366004611d84565b611043565b61029f61053e366004611cad565b600e6020526000908152604090205460ff1681565b6102b3610561366004611cc7565b6001600160a01b03918216600090815260016020908152604080832093909416825291909152205490565b61029f61059a366004611cad565b6001600160a01b03166000908152600e602052604090205460ff1690565b600d546102b3565b6102e76105ce366004611cad565b61112a565b6102e76111c2565b6060600380546105ea9061202a565b80601f01602080910402602001604051908101604052809291908181526020018280546106169061202a565b80156106635780601f1061063857610100808354040283529160200191610663565b820191906000526020600020905b81548152906001019060200180831161064657829003601f168201915b505050505090505b90565b60003361067c818585611201565b5060019392505050565b600b5460009081908190600160a01b900460ff16156106c75760006106a9611325565b90506106b481611418565b9250600a548110156106c557600191505b505b8115806106ec57506001600160a01b0386166000908152600e602052604090205460ff165b15610701576106fc86868661157f565b61070f565b61070d8686868461174f565b505b6107478633610742876040518060600160405280602881526020016120766028913961073b8c33610561565b91906117c8565b611201565b50600195945050505050565b6006546001600160a01b031633148061077657506008546001600160a01b031633145b61079b5760405162461bcd60e51b815260040161079290611f0b565b60405180910390fd5b6001600160a01b0381166107fc5760405162461bcd60e51b815260206004820152602260248201527f6f7261636c6520616464726573732063616e6e6f742062652030206164647265604482015261737360f01b6064820152608401610792565b600780546001600160a01b0319166001600160a01b0392909216919091179055565b6005546001600160a01b031633146108485760405162461bcd60e51b815260040161079290611e48565b610851816117f4565b50565b6006546000906001600160a01b031633148061087a57506008546001600160a01b031633145b6108965760405162461bcd60e51b815260040161079290611f0b565b6001600160a01b0382166000908152600e602052604090205460ff16156108ff5760405162461bcd60e51b815260206004820152601960248201527f616464726573732063616e2774206265206578636c75646564000000000000006044820152606401610792565b506001600160a01b0381166000908152600e60205260409020805460ff191660019081179091555b919050565b3360008181526001602090815260408083206001600160a01b038716845290915281205490919061067c9082908690610742908790611f57565b6006546001600160a01b031633148061098957506008546001600160a01b031633145b6109a55760405162461bcd60e51b815260040161079290611f0b565b6001600160a01b038116610a0a5760405162461bcd60e51b815260206004820152602660248201527f746178206f666669636520616464726573732063616e6e6f742062652030206160448201526564647265737360d01b6064820152608401610792565b600854604080516001600160a01b03928316815291831660208301527f75237613d1cfb394eb7979839ecbeacaca4592ef0cf96791979625803948a601910160405180910390a1600880546001600160a01b0319166001600160a01b0392909216919091179055565b6006546000906001600160a01b03163314610aa05760405162461bcd60e51b815260040161079290611e7d565b6001600160a01b038316600090815260208190526040902054610ac384846118b8565b6001600160a01b03841660009081526020819052604081205491909111949350505050565b61085181611998565b600c8181548110610b0157600080fd5b600091825260209091200154905081565b600d8181548110610b0157600080fd5b6008546001600160a01b03163314610b4c5760405162461bcd60e51b815260040161079290611e11565b600b805460ff60a01b19169055565b6008546000906001600160a01b03163314610b885760405162461bcd60e51b815260040161079290611e11565b6107d0821115610bda5760405162461bcd60e51b815260206004820152601a60248201527f74617820657175616c206f72206c657373207468616e203230250000000000006044820152606401610792565b600c548360ff1610610bfe5760405162461bcd60e51b815260040161079290611ec1565b60ff831615610c4b57600c610c14600185611fea565b60ff1681548110610c3557634e487b7160e01b600052603260045260246000fd5b90600052602060002001548211610c4b57600080fd5b610c5f6001610c59600c5490565b906119a2565b8360ff161015610cad57600c610c76846001611f6f565b60ff1681548110610c9757634e487b7160e01b600052603260045260246000fd5b90600052602060002001548210610cad57600080fd5b81600c8460ff1681548110610cd257634e487b7160e01b600052603260045260246000fd5b60009182526020909120015550600192915050565b6008546001600160a01b03163314610d115760405162461bcd60e51b815260040161079290611e11565b6001600160a01b038116610d7e5760405162461bcd60e51b815260206004820152602e60248201527f74617820636f6c6c6563746f722061646472657373206d757374206265206e6f60448201526d6e2d7a65726f206164647265737360901b6064820152608401610792565b600b80546001600160a01b0319166001600160a01b0392909216919091179055565b6005546001600160a01b03163314610dca5760405162461bcd60e51b815260040161079290611e48565b610dd460006119b5565b565b6006546001600160a01b03163314610e005760405162461bcd60e51b815260040161079290611e7d565b610e0a8282611a07565b5050565b6006546000906001600160a01b0316331480610e3457506008546001600160a01b031633145b610e505760405162461bcd60e51b815260040161079290611f0b565b6001600160a01b0382166000908152600e602052604090205460ff16610eb85760405162461bcd60e51b815260206004820152601960248201527f616464726573732063616e277420626520696e636c75646564000000000000006044820152606401610792565b506001600160a01b03166000908152600e60205260409020805460ff19169055600190565b6060600480546105ea9061202a565b6008546000906001600160a01b03163314610f195760405162461bcd60e51b815260040161079290611e11565b600a9190915590565b3360008181526001602090815260408083206001600160a01b038716845290915281205490919083811015610fa75760405162461bcd60e51b815260206004820152602560248201527f45524332303a2064656372656173656420616c6c6f77616e63652062656c6f77604482015264207a65726f60d81b6064820152608401610792565b610fb48286868403611201565b506001949350505050565b60003361067c81858561157f565b6008546000906001600160a01b03163314610ffa5760405162461bcd60e51b815260040161079290611e11565b600d548360ff161061101e5760405162461bcd60e51b815260040161079290611ec1565b81600d8460ff1681548110610cd257634e487b7160e01b600052603260045260246000fd5b6008546001600160a01b0316331461106d5760405162461bcd60e51b815260040161079290611e11565b600b54600160a01b900460ff16156110d35760405162461bcd60e51b8152602060048201526024808201527f6175746f2063616c63756c617465207461782063616e6e6f7420626520656e61604482015263189b195960e21b6064820152608401610792565b6107d08111156111255760405162461bcd60e51b815260206004820152601a60248201527f74617820657175616c206f72206c657373207468616e203230250000000000006044820152606401610792565b600955565b6005546001600160a01b031633146111545760405162461bcd60e51b815260040161079290611e48565b6001600160a01b0381166111b95760405162461bcd60e51b815260206004820152602660248201527f4f776e61626c653a206e6577206f776e657220697320746865207a65726f206160448201526564647265737360d01b6064820152608401610792565b610851816119b5565b6008546001600160a01b031633146111ec5760405162461bcd60e51b815260040161079290611e11565b600b805460ff60a01b1916600160a01b179055565b6001600160a01b0383166112635760405162461bcd60e51b8152602060048201526024808201527f45524332303a20617070726f76652066726f6d20746865207a65726f206164646044820152637265737360e01b6064820152608401610792565b6001600160a01b0382166112c45760405162461bcd60e51b815260206004820152602260248201527f45524332303a20617070726f766520746f20746865207a65726f206164647265604482015261737360f01b6064820152608401610792565b6001600160a01b0383811660008181526001602090815260408083209487168084529482529182902085905590518481527f8c5be1e5ebec7d5bd14f71427d1e84f3dd0314c0f7b2291e5b200ac8c7c3b925910160405180910390a3505050565b600754604051633ddac95360e01b8152306004820152670de0b6b3a764000060248201526000916001600160a01b031690633ddac9539060440160206040518083038186803b15801561137757600080fd5b505afa9250505080156113a7575060408051601f3d908101601f191682019092526113a491810190611d5d565b60015b6114085760405162461bcd60e51b815260206004820152602c60248201527f31306d623a206661696c656420746f2066657463682031306d6220707269636560448201526b2066726f6d204f7261636c6560a01b6064820152608401610792565b6001600160901b0316905061066b565b600b54600090600160a01b900460ff1615610927576000611446600161143d600c5490565b60ff1690611a1c565b90505b600c8160ff168154811061146d57634e487b7160e01b600052603260045260246000fd5b9060005260206000200154831061156957612710600d8260ff16815481106114a557634e487b7160e01b600052603260045260246000fd5b9060005260206000200154106114fd5760405162461bcd60e51b815260206004820152601b60248201527f74617820657175616c206f722062696767657220746f203130302500000000006044820152606401610792565b600d8160ff168154811061152157634e487b7160e01b600052603260045260246000fd5b9060005260206000200154600981905550600d8160ff168154811061155657634e487b7160e01b600052603260045260246000fd5b9060005260206000200154915050610927565b6115728161200d565b9050611449565b50919050565b6001600160a01b0383166115e35760405162461bcd60e51b815260206004820152602560248201527f45524332303a207472616e736665722066726f6d20746865207a65726f206164604482015264647265737360d81b6064820152608401610792565b6001600160a01b0382166116455760405162461bcd60e51b815260206004820152602360248201527f45524332303a207472616e7366657220746f20746865207a65726f206164647260448201526265737360e81b6064820152608401610792565b6001600160a01b038316600090815260208190526040902054818110156116bd5760405162461bcd60e51b815260206004820152602660248201527f45524332303a207472616e7366657220616d6f756e7420657863656564732062604482015265616c616e636560d01b6064820152608401610792565b6001600160a01b038085166000908152602081905260408082208585039055918516815290812080548492906116f4908490611f57565b92505081905550826001600160a01b0316846001600160a01b03167fddf252ad1be2c89b69c2b068fc378daa952ba7f163c4a11628f55a4df523b3ef8460405161174091815260200190565b60405180910390a35b50505050565b60008061177361271061176d60095487611a6390919063ffffffff16565b90611a6f565b9050600061178185836119a2565b90508315611798576117938783611a07565b6117b0565b600b546117b09088906001600160a01b03168461157f565b6117bb87878361157f565b5060019695505050505050565b600081848411156117ec5760405162461bcd60e51b81526004016107929190611dbe565b505050900390565b6001600160a01b0381166118605760405162461bcd60e51b815260206004820152602d60248201527f6f70657261746f723a207a65726f206164647265737320676976656e20666f7260448201526c103732bb9037b832b930ba37b960991b6064820152608401610792565b6040516001600160a01b038216906000907f74da04524d50c64947f5dd5381ef1a4dca5cba8ed1d816243f9e48aa0b5617ed908290a3600680546001600160a01b0319166001600160a01b0392909216919091179055565b6001600160a01b03821661190e5760405162461bcd60e51b815260206004820152601f60248201527f45524332303a206d696e7420746f20746865207a65726f2061646472657373006044820152606401610792565b80600260008282546119209190611f57565b90915550506001600160a01b0382166000908152602081905260408120805483929061194d908490611f57565b90915550506040518181526001600160a01b038316906000907fddf252ad1be2c89b69c2b068fc378daa952ba7f163c4a11628f55a4df523b3ef9060200160405180910390a3610e0a565b6108513382611a7b565b60006119ae8284611fd3565b9392505050565b600580546001600160a01b038381166001600160a01b0319831681179093556040519116919082907f8be0079c531659141344cd1fd0a4f28419497f9722a3daafe3b4186f6b6457e090600090a35050565b611a12823383611bc9565b610e0a8282611a7b565b60006119ae83836040518060400160405280601e81526020017f536166654d6174683a207375627472616374696f6e206f766572666c6f770000815250611c55565b505050565b60006119ae8284611fb4565b60006119ae8284611f94565b6001600160a01b038216611adb5760405162461bcd60e51b815260206004820152602160248201527f45524332303a206275726e2066726f6d20746865207a65726f206164647265736044820152607360f81b6064820152608401610792565b6001600160a01b03821660009081526020819052604090205481811015611b4f5760405162461bcd60e51b815260206004820152602260248201527f45524332303a206275726e20616d6f756e7420657863656564732062616c616e604482015261636560f01b6064820152608401610792565b6001600160a01b0383166000908152602081905260408120838303905560028054849290611b7e908490611fd3565b90915550506040518281526000906001600160a01b038516907fddf252ad1be2c89b69c2b068fc378daa952ba7f163c4a11628f55a4df523b3ef9060200160405180910390a3611a5e565b6001600160a01b0383811660009081526001602090815260408083209386168352929052205460001981146117495781811015611c485760405162461bcd60e51b815260206004820152601d60248201527f45524332303a20696e73756666696369656e7420616c6c6f77616e63650000006044820152606401610792565b6117498484848403611201565b60008360ff168360ff1611158290611c805760405162461bcd60e51b81526004016107929190611dbe565b506000611c8d8486611fea565b95945050505050565b80356001600160a01b038116811461092757600080fd5b600060208284031215611cbe578081fd5b6119ae82611c96565b60008060408385031215611cd9578081fd5b611ce283611c96565b9150611cf060208401611c96565b90509250929050565b600080600060608486031215611d0d578081fd5b611d1684611c96565b9250611d2460208501611c96565b9150604084013590509250925092565b60008060408385031215611d46578182fd5b611d4f83611c96565b946020939093013593505050565b600060208284031215611d6e578081fd5b81516001600160901b03811681146119ae578182fd5b600060208284031215611d95578081fd5b5035919050565b60008060408385031215611dae578182fd5b823560ff81168114611d4f578283fd5b6000602080835283518082850152825b81811015611dea57858101830151858201604001528201611dce565b81811115611dfb5783604083870101525b50601f01601f1916929092016040019392505050565b6020808252601c908201527f43616c6c6572206973206e6f742074686520746178206f666669636500000000604082015260600190565b6020808252818101527f4f776e61626c653a2063616c6c6572206973206e6f7420746865206f776e6572604082015260600190565b60208082526024908201527f6f70657261746f723a2063616c6c6572206973206e6f7420746865206f70657260408201526330ba37b960e11b606082015260800190565b6020808252602a908201527f496e6465782068617320746f206c6f776572207468616e20636f756e74206f666040820152692074617820746965727360b01b606082015260800190565b6020808252602c908201527f43616c6c6572206973206e6f7420746865206f70657261746f72206f7220746860408201526b6520746178206f666669636560a01b606082015260800190565b60008219821115611f6a57611f6a61205f565b500190565b600060ff821660ff84168060ff03821115611f8c57611f8c61205f565b019392505050565b600082611faf57634e487b7160e01b81526012600452602481fd5b500490565b6000816000190483118215151615611fce57611fce61205f565b500290565b600082821015611fe557611fe561205f565b500390565b600060ff821660ff8416808210156120045761200461205f565b90039392505050565b600060ff8216806120205761202061205f565b6000190192915050565b600181811c9082168061203e57607f821691505b6020821081141561157957634e487b7160e01b600052602260045260246000fd5b634e487b7160e01b600052601160045260246000fdfe45524332303a207472616e7366657220616d6f756e74206578636565647320616c6c6f77616e6365a2646970667358221220e0364bb2749c91ff07ac07ab7b0fa04e63ebe3c513ce69ca8c253e53162d48a864736f6c63430008030033",
  "linkReferences": {},
  "deployedLinkReferences": {}
}