{
  "_format": "hh-sol-artifact-1",
  "contractName": "_10SHARE",
  "sourceName": "contracts/tokens/_10SHARE.sol",
  "abi": [
    {
      "inputs": [
        {
          "internalType": "uint256",
          "name": "_startTime",
          "type": "uint256"
        },
        {
          "internalType": "address",
          "name": "_daoFund",
          "type": "address"
        },
        {
          "internalType": "address",
          "name": "_devFund",
          "type": "address"
        },
        {
          "internalType": "address",
          "name": "_treasuryFund",
          "type": "address"
        }
      ],
      "stateMutability": "nonpayable",
      "type": "constructor"
    },
    {
      "anonymous": false,
      "inputs": [
        {
          "indexed": true,
          "internalType": "address",
          "name": "owner",
          "type": "address"
        },
        {
          "indexed": true,
          "internalType": "address",
          "name": "spender",
          "type": "address"
        },
        {
          "indexed": false,
          "internalType": "uint256",
          "name": "value",
          "type": "uint256"
        }
      ],
      "name": "Approval",
      "type": "event"
    },
    {
      "anonymous": false,
      "inputs": [
        {
          "indexed": true,
          "internalType": "address",
          "name": "previousOperator",
          "type": "address"
        },
        {
          "indexed": true,
          "internalType": "address",
          "name": "newOperator",
          "type": "address"
        }
      ],
      "name": "OperatorTransferred",
      "type": "event"
    },
    {
      "anonymous": false,
      "inputs": [
        {
          "indexed": true,
          "internalType": "address",
          "name": "previousOwner",
          "type": "address"
        },
        {
          "indexed": true,
          "internalType": "address",
          "name": "newOwner",
          "type": "address"
        }
      ],
      "name": "OwnershipTransferred",
      "type": "event"
    },
    {
      "anonymous": false,
      "inputs": [
        {
          "indexed": true,
          "internalType": "address",
          "name": "from",
          "type": "address"
        },
        {
          "indexed": true,
          "internalType": "address",
          "name": "to",
          "type": "address"
        },
        {
          "indexed": false,
          "internalType": "uint256",
          "name": "value",
          "type": "uint256"
        }
      ],
      "name": "Transfer",
      "type": "event"
    },
    {
      "inputs": [],
      "name": "DAO_FUND_POOL_ALLOCATION",
      "outputs": [
        {
          "internalType": "uint256",
          "name": "",
          "type": "uint256"
        }
      ],
      "stateMutability": "view",
      "type": "function"
    },
    {
      "inputs": [],
      "name": "DEV_FUND_POOL_ALLOCATION",
      "outputs": [
        {
          "internalType": "uint256",
          "name": "",
          "type": "uint256"
        }
      ],
      "stateMutability": "view",
      "type": "function"
    },
    {
      "inputs": [],
      "name": "FARMING_POOL_REWARD_ALLOCATION",
      "outputs": [
        {
          "internalType": "uint256",
          "name": "",
          "type": "uint256"
        }
      ],
      "stateMutability": "view",
      "type": "function"
    },
    {
      "inputs": [],
      "name": "TREASURY_FUND_POOL_ALLOCATION",
      "outputs": [
        {
          "internalType": "uint256",
          "name": "",
          "type": "uint256"
        }
      ],
      "stateMutability": "view",
      "type": "function"
    },
    {
      "inputs": [],
      "name": "VESTING_DURATION",
      "outputs": [
        {
          "internalType": "uint256",
          "name": "",
          "type": "uint256"
        }
      ],
      "stateMutability": "view",
      "type": "function"
    },
    {
      "inputs": [
        {
          "internalType": "address",
          "name": "owner",
          "type": "address"
        },
        {
          "internalType": "address",
          "name": "spender",
          "type": "address"
        }
      ],
      "name": "allowance",
      "outputs": [
        {
          "internalType": "uint256",
          "name": "",
          "type": "uint256"
        }
      ],
      "stateMutability": "view",
      "type": "function"
    },
    {
      "inputs": [
        {
          "internalType": "address",
          "name": "spender",
          "type": "address"
        },
        {
          "internalType": "uint256",
          "name": "amount",
          "type": "uint256"
        }
      ],
      "name": "approve",
      "outputs": [
        {
          "internalType": "bool",
          "name": "",
          "type": "bool"
        }
      ],
      "stateMutability": "nonpayable",
      "type": "function"
    },
    {
      "inputs": [
        {
          "internalType": "address",
          "name": "account",
          "type": "address"
        }
      ],
      "name": "balanceOf",
      "outputs": [
        {
          "internalType": "uint256",
          "name": "",
          "type": "uint256"
        }
      ],
      "stateMutability": "view",
      "type": "function"
    },
    {
      "inputs": [
        {
          "internalType": "uint256",
          "name": "amount",
          "type": "uint256"
        }
      ],
      "name": "burn",
      "outputs": [],
      "stateMutability": "nonpayable",
      "type": "function"
    },
    {
      "inputs": [
        {
          "internalType": "address",
          "name": "account",
          "type": "address"
        },
        {
          "internalType": "uint256",
          "name": "amount",
          "type": "uint256"
        }
      ],
      "name": "burnFrom",
      "outputs": [],
      "stateMutability": "nonpayable",
      "type": "function"
    },
    {
      "inputs": [],
      "name": "claimRewards",
      "outputs": [],
      "stateMutability": "nonpayable",
      "type": "function"
    },
    {
      "inputs": [],
      "name": "daoFund",
      "outputs": [
        {
          "internalType": "address",
          "name": "",
          "type": "address"
        }
      ],
      "stateMutability": "view",
      "type": "function"
    },
    {
      "inputs": [],
      "name": "daoFundRewardRate",
      "outputs": [
        {
          "internalType": "uint256",
          "name": "",
          "type": "uint256"
        }
      ],
      "stateMutability": "view",
      "type": "function"
    },
    {
      "inputs": [],
      "name": "decimals",
      "outputs": [
        {
          "internalType": "uint8",
          "name": "",
          "type": "uint8"
        }
      ],
      "stateMutability": "view",
      "type": "function"
    },
    {
      "inputs": [
        {
          "internalType": "address",
          "name": "spender",
          "type": "address"
        },
        {
          "internalType": "uint256",
          "name": "subtractedValue",
          "type": "uint256"
        }
      ],
      "name": "decreaseAllowance",
      "outputs": [
        {
          "internalType": "bool",
          "name": "",
          "type": "bool"
        }
      ],
      "stateMutability": "nonpayable",
      "type": "function"
    },
    {
      "inputs": [],
      "name": "devFund",
      "outputs": [
        {
          "internalType": "address",
          "name": "",
          "type": "address"
        }
      ],
      "stateMutability": "view",
      "type": "function"
    },
    {
      "inputs": [],
      "name": "devFundRewardRate",
      "outputs": [
        {
          "internalType": "uint256",
          "name": "",
          "type": "uint256"
        }
      ],
      "stateMutability": "view",
      "type": "function"
    },
    {
      "inputs": [
        {
          "internalType": "address",
          "name": "_farmingIncentiveFund",
          "type": "address"
        }
      ],
      "name": "distributeReward",
      "outputs": [],
      "stateMutability": "nonpayable",
      "type": "function"
    },
    {
      "inputs": [],
      "name": "endTime",
      "outputs": [
        {
          "internalType": "uint256",
          "name": "",
          "type": "uint256"
        }
      ],
      "stateMutability": "view",
      "type": "function"
    },
    {
      "inputs": [
        {
          "internalType": "contract IERC20",
          "name": "_token",
          "type": "address"
        },
        {
          "internalType": "uint256",
          "name": "_amount",
          "type": "uint256"
        },
        {
          "internalType": "address",
          "name": "_to",
          "type": "address"
        }
      ],
      "name": "governanceRecoverUnsupported",
      "outputs": [],
      "stateMutability": "nonpayable",
      "type": "function"
    },
    {
      "inputs": [
        {
          "internalType": "address",
          "name": "spender",
          "type": "address"
        },
        {
          "internalType": "uint256",
          "name": "addedValue",
          "type": "uint256"
        }
      ],
      "name": "increaseAllowance",
      "outputs": [
        {
          "internalType": "bool",
          "name": "",
          "type": "bool"
        }
      ],
      "stateMutability": "nonpayable",
      "type": "function"
    },
    {
      "inputs": [],
      "name": "isOperator",
      "outputs": [
        {
          "internalType": "bool",
          "name": "",
          "type": "bool"
        }
      ],
      "stateMutability": "view",
      "type": "function"
    },
    {
      "inputs": [],
      "name": "lastClaimedTime",
      "outputs": [
        {
          "internalType": "uint256",
          "name": "",
          "type": "uint256"
        }
      ],
      "stateMutability": "view",
      "type": "function"
    },
    {
      "inputs": [],
      "name": "name",
      "outputs": [
        {
          "internalType": "string",
          "name": "",
          "type": "string"
        }
      ],
      "stateMutability": "view",
      "type": "function"
    },
    {
      "inputs": [],
      "name": "operator",
      "outputs": [
        {
          "internalType": "address",
          "name": "",
          "type": "address"
        }
      ],
      "stateMutability": "view",
      "type": "function"
    },
    {
      "inputs": [],
      "name": "owner",
      "outputs": [
        {
          "internalType": "address",
          "name": "",
          "type": "address"
        }
      ],
      "stateMutability": "view",
      "type": "function"
    },
    {
      "inputs": [],
      "name": "renounceOwnership",
      "outputs": [],
      "stateMutability": "nonpayable",
      "type": "function"
    },
    {
      "inputs": [],
      "name": "rewardPoolDistributed",
      "outputs": [
        {
          "internalType": "bool",
          "name": "",
          "type": "bool"
        }
      ],
      "stateMutability": "view",
      "type": "function"
    },
    {
      "inputs": [
        {
          "internalType": "address",
          "name": "_daoFund",
          "type": "address"
        }
      ],
      "name": "setDaoFund",
      "outputs": [],
      "stateMutability": "nonpayable",
      "type": "function"
    },
    {
      "inputs": [
        {
          "internalType": "address",
          "name": "_devFund",
          "type": "address"
        }
      ],
      "name": "setDevFund",
      "outputs": [],
      "stateMutability": "nonpayable",
      "type": "function"
    },
    {
      "inputs": [
        {
          "internalType": "address",
          "name": "_treasuryFund",
          "type": "address"
        }
      ],
      "name": "setTreasuryFund",
      "outputs": [],
      "stateMutability": "nonpayable",
      "type": "function"
    },
    {
      "inputs": [],
      "name": "startTime",
      "outputs": [
        {
          "internalType": "uint256",
          "name": "",
          "type": "uint256"
        }
      ],
      "stateMutability": "view",
      "type": "function"
    },
    {
      "inputs": [],
      "name": "symbol",
      "outputs": [
        {
          "internalType": "string",
          "name": "",
          "type": "string"
        }
      ],
      "stateMutability": "view",
      "type": "function"
    },
    {
      "inputs": [],
      "name": "totalSupply",
      "outputs": [
        {
          "internalType": "uint256",
          "name": "",
          "type": "uint256"
        }
      ],
      "stateMutability": "view",
      "type": "function"
    },
    {
      "inputs": [
        {
          "internalType": "address",
          "name": "to",
          "type": "address"
        },
        {
          "internalType": "uint256",
          "name": "amount",
          "type": "uint256"
        }
      ],
      "name": "transfer",
      "outputs": [
        {
          "internalType": "bool",
          "name": "",
          "type": "bool"
        }
      ],
      "stateMutability": "nonpayable",
      "type": "function"
    },
    {
      "inputs": [
        {
          "internalType": "address",
          "name": "from",
          "type": "address"
        },
        {
          "internalType": "address",
          "name": "to",
          "type": "address"
        },
        {
          "internalType": "uint256",
          "name": "amount",
          "type": "uint256"
        }
      ],
      "name": "transferFrom",
      "outputs": [
        {
          "internalType": "bool",
          "name": "",
          "type": "bool"
        }
      ],
      "stateMutability": "nonpayable",
      "type": "function"
    },
    {
      "inputs": [
        {
          "internalType": "address",
          "name": "newOperator_",
          "type": "address"
        }
      ],
      "name": "transferOperator",
      "outputs": [],
      "stateMutability": "nonpayable",
      "type": "function"
    },
    {
      "inputs": [
        {
          "internalType": "address",
          "name": "newOwner",
          "type": "address"
        }
      ],
      "name": "transferOwnership",
      "outputs": [],
      "stateMutability": "nonpayable",
      "type": "function"
    },
    {
      "inputs": [],
      "name": "treasuryFund",
      "outputs": [
        {
          "internalType": "address",
          "name": "",
          "type": "address"
        }
      ],
      "stateMutability": "view",
      "type": "function"
    },
    {
      "inputs": [],
      "name": "treasuryFundRewardRate",
      "outputs": [
        {
          "internalType": "uint256",
          "name": "",
          "type": "uint256"
        }
      ],
      "stateMutability": "view",
      "type": "function"
    },
    {
      "inputs": [],
      "name": "unclaimedDaoFund",
      "outputs": [
        {
          "internalType": "uint256",
          "name": "_pending",
          "type": "uint256"
        }
      ],
      "stateMutability": "view",
      "type": "function"
    },
    {
      "inputs": [],
      "name": "unclaimedDevFund",
      "outputs": [
        {
          "internalType": "uint256",
          "name": "_pending",
          "type": "uint256"
        }
      ],
      "stateMutability": "view",
      "type": "function"
    },
    {
      "inputs": [],
      "name": "unclaimedTreasuryFund",
      "outputs": [
        {
          "internalType": "uint256",
          "name": "_pending",
          "type": "uint256"
        }
      ],
      "stateMutability": "view",
      "type": "function"
    }
  ],
  "bytecode": "0x60806040526010805460ff191690553480156200001b57600080fd5b5060405162001f5e38038062001f5e8339810160408190526200003e91620004fb565b6040805180820182526007808252663130534841524560c81b602080840182815285518087019096529285528401528151919291620000809160039162000438565b5080516200009690600490602084019062000438565b505050620000b3620000ad620002e860201b60201c565b620002ec565b600680546001600160a01b031916339081179091556040516000907f74da04524d50c64947f5dd5381ef1a4dca5cba8ed1d816243f9e48aa0b5617ed908290a36200010733670de0b6b3a76400006200033e565b60078490556200011c6301e13380856200054e565b600855600754600f556200014b69032d26d12e980b6000006301e1338062000423602090811b62000c8e17901c565b6009556200017469021e19e0c9bab24000006301e1338062000423602090811b62000c8e17901c565b600b556200019d69010f0cf064dd592000006301e1338062000423602090811b62000c8e17901c565b600a556001600160a01b038216620001f25760405162461bcd60e51b81526020600482015260136024820152720416464726573732063616e6e6f74206265203606c1b60448201526064015b60405180910390fd5b600e80546001600160a01b0319166001600160a01b03848116919091179091558316620002585760405162461bcd60e51b81526020600482015260136024820152720416464726573732063616e6e6f74206265203606c1b6044820152606401620001e9565b600d80546001600160a01b0319166001600160a01b03858116919091179091558116620002be5760405162461bcd60e51b81526020600482015260136024820152720416464726573732063616e6e6f74206265203606c1b6044820152606401620001e9565b600c80546001600160a01b0319166001600160a01b039290921691909117905550620005d1915050565b3390565b600580546001600160a01b038381166001600160a01b0319831681179093556040519116919082907f8be0079c531659141344cd1fd0a4f28419497f9722a3daafe3b4186f6b6457e090600090a35050565b6001600160a01b038216620003965760405162461bcd60e51b815260206004820152601f60248201527f45524332303a206d696e7420746f20746865207a65726f2061646472657373006044820152606401620001e9565b8060026000828254620003aa91906200054e565b90915550506001600160a01b03821660009081526020819052604081208054839290620003d99084906200054e565b90915550506040518181526001600160a01b038316906000907fddf252ad1be2c89b69c2b068fc378daa952ba7f163c4a11628f55a4df523b3ef9060200160405180910390a35050565b600062000431828462000573565b9392505050565b828054620004469062000594565b90600052602060002090601f0160209004810192826200046a5760008555620004b5565b82601f106200048557805160ff1916838001178555620004b5565b82800160010185558215620004b5579182015b82811115620004b557825182559160200191906001019062000498565b50620004c3929150620004c7565b5090565b5b80821115620004c35760008155600101620004c8565b80516001600160a01b0381168114620004f657600080fd5b919050565b6000806000806080858703121562000511578384fd5b845193506200052360208601620004de565b92506200053360408601620004de565b91506200054360608601620004de565b905092959194509250565b600082198211156200056e57634e487b7160e01b81526011600452602481fd5b500190565b6000826200058f57634e487b7160e01b81526012600452602481fd5b500490565b600181811c90821680620005a957607f821691505b60208210811415620005cb57634e487b7160e01b600052602260045260246000fd5b50919050565b61197d80620005e16000396000f3fe608060405234801561001057600080fd5b50600436106102695760003560e01c80634cfc4d301161015157806395d89b41116100c3578063ae4db91911610087578063ae4db919146104e9578063c3ebc593146104fc578063dd62ed3e14610505578063e0c4f12d1461053e578063f2fde38b14610551578063f746b7181461056457610269565b806395d89b411461049d5780639662676c146104a5578063a06160fd146104b2578063a457c2d7146104c3578063a9059cbb146104d657610269565b8063715018a611610115578063715018a61461044457806374e7153d1461044c57806378e979251461045d57806379cc6790146104665780638d934f74146104795780638da5cb5b1461048c57610269565b80634cfc4d30146103db5780634f337dd5146103e657806354575af4146103f7578063570ca7351461040a57806370a082311461041b57610269565b80632c07a624116101ea57806334b9558e116101ae57806334b9558e14610366578063372500ab1461036f578063395093511461037757806342966c681461038a5780634390d2a81461039d5780634456eda2146103c857610269565b80632c07a6241461032a5780632c559d27146103325780632e3367ce14610345578063313ce5671461034e5780633197cbb61461035d57610269565b806318160ddd1161023157806318160ddd146102eb5780631a5df607146102f35780631de6934a146102fb57806323b872dd1461030457806329605e771461031757610269565b806306fdde031461026e578063092193ab1461028c578063095ea7b3146102a157806316103b72146102c457806317764782146102e3575b600080fd5b610276610577565b604051610283919061177d565b60405180910390f35b61029f61029a366004611629565b61060a565b005b6102b46102af3660046116bd565b610703565b6040519015158152602001610283565b6102d569032d26d12e980b60000081565b604051908152602001610283565b6102d561071b565b6002546102d5565b6102d5610769565b6102d5600a5481565b6102b461031236600461167d565b6107ab565b61029f610325366004611629565b6107d1565b6102d5610804565b61029f610340366004611629565b610846565b6102d5600b5481565b60405160128152602001610283565b6102d560085481565b6102d5600f5481565b61029f6108b8565b6102b46103853660046116bd565b61097e565b61029f610398366004611749565b6109bd565b600e546103b0906001600160a01b031681565b6040516001600160a01b039091168152602001610283565b6006546001600160a01b031633146102b4565b6102d56301e1338081565b6102d569021e19e0c9bab240000081565b61029f610405366004611708565b6109c6565b6006546001600160a01b03166103b0565b6102d5610429366004611629565b6001600160a01b031660009081526020819052604090205490565b61029f610a09565b6102d569010f0cf064dd5920000081565b6102d560075481565b61029f6104743660046116bd565b610a3f565b600d546103b0906001600160a01b031681565b6005546001600160a01b03166103b0565b610276610a58565b6010546102b49060ff1681565b6102d5690ed2b525841adfc0000081565b6102b46104d13660046116bd565b610a67565b6102b46104e43660046116bd565b610b04565b61029f6104f7366004611629565b610b12565b6102d560095481565b6102d5610513366004611645565b6001600160a01b03918216600090815260016020908152604080832093909416825291909152205490565b600c546103b0906001600160a01b031681565b61029f61055f366004611629565b610b84565b61029f610572366004611629565b610c1c565b606060038054610586906118e1565b80601f01602080910402602001604051908101604052809291908181526020018280546105b2906118e1565b80156105ff5780601f106105d4576101008083540402835291602001916105ff565b820191906000526020600020905b8154815290600101906020018083116105e257829003601f168201915b505050505090505b90565b6006546001600160a01b0316331461063d5760405162461bcd60e51b815260040161063490611803565b60405180910390fd5b60105460ff16156106905760405162461bcd60e51b815260206004820152601860248201527f6f6e6c792063616e2064697374726962757465206f6e636500000000000000006044820152606401610634565b6001600160a01b0381166106df5760405162461bcd60e51b81526020600482015260166024820152750857d9985c9b5a5b99d25b98d95b9d1a5d99519d5b9960521b6044820152606401610634565b6010805460ff1916600117905561070081690ed2b525841adfc00000610c9a565b50565b600033610711818585610d7a565b5060019392505050565b600854600090429081111561072f57506008545b80600f5410610742576000915050610607565b610763600a5461075d600f5484610e9e90919063ffffffff16565b90610eaa565b91505090565b600854600090429081111561077d57506008545b80600f5410610790576000915050610607565b61076360095461075d600f5484610e9e90919063ffffffff16565b6000336107b9858285610eb6565b6107c4858585610f48565b60019150505b9392505050565b6005546001600160a01b031633146107fb5760405162461bcd60e51b8152600401610634906117ce565b61070081611116565b600854600090429081111561081857506008545b80600f541061082b576000915050610607565b610763600b5461075d600f5484610e9e90919063ffffffff16565b6006546001600160a01b031633146108705760405162461bcd60e51b815260040161063490611803565b6001600160a01b0381166108965760405162461bcd60e51b8152600401610634906117b0565b600d80546001600160a01b0319166001600160a01b0392909216919091179055565b60006108c2610769565b90506000811180156108de5750600d546001600160a01b031615155b156108f957600d546108f9906001600160a01b031682610c9a565b610901610804565b905060008111801561091d5750600e546001600160a01b031615155b1561093857600e54610938906001600160a01b031682610c9a565b61094061071b565b905060008111801561095c5750600c546001600160a01b031615155b1561097757600c54610977906001600160a01b031682610c9a565b5042600f55565b3360008181526001602090815260408083206001600160a01b038716845290915281205490919061071190829086906109b8908790611847565b610d7a565b610700816111da565b6006546001600160a01b031633146109f05760405162461bcd60e51b815260040161063490611803565b610a046001600160a01b03841682846111e4565b505050565b6005546001600160a01b03163314610a335760405162461bcd60e51b8152600401610634906117ce565b610a3d6000611236565b565b610a4a823383610eb6565b610a548282611288565b5050565b606060048054610586906118e1565b3360008181526001602090815260408083206001600160a01b038716845290915281205490919083811015610aec5760405162461bcd60e51b815260206004820152602560248201527f45524332303a2064656372656173656420616c6c6f77616e63652062656c6f77604482015264207a65726f60d81b6064820152608401610634565b610af98286868403610d7a565b506001949350505050565b600033610711818585610f48565b6006546001600160a01b03163314610b3c5760405162461bcd60e51b815260040161063490611803565b6001600160a01b038116610b625760405162461bcd60e51b8152600401610634906117b0565b600e80546001600160a01b0319166001600160a01b0392909216919091179055565b6005546001600160a01b03163314610bae5760405162461bcd60e51b8152600401610634906117ce565b6001600160a01b038116610c135760405162461bcd60e51b815260206004820152602660248201527f4f776e61626c653a206e6577206f776e657220697320746865207a65726f206160448201526564647265737360d01b6064820152608401610634565b61070081611236565b6006546001600160a01b03163314610c465760405162461bcd60e51b815260040161063490611803565b6001600160a01b038116610c6c5760405162461bcd60e51b8152600401610634906117b0565b600c80546001600160a01b0319166001600160a01b0392909216919091179055565b60006107ca828461185f565b6001600160a01b038216610cf05760405162461bcd60e51b815260206004820152601f60248201527f45524332303a206d696e7420746f20746865207a65726f2061646472657373006044820152606401610634565b8060026000828254610d029190611847565b90915550506001600160a01b03821660009081526020819052604081208054839290610d2f908490611847565b90915550506040518181526001600160a01b038316906000907fddf252ad1be2c89b69c2b068fc378daa952ba7f163c4a11628f55a4df523b3ef9060200160405180910390a3610a54565b6001600160a01b038316610ddc5760405162461bcd60e51b8152602060048201526024808201527f45524332303a20617070726f76652066726f6d20746865207a65726f206164646044820152637265737360e01b6064820152608401610634565b6001600160a01b038216610e3d5760405162461bcd60e51b815260206004820152602260248201527f45524332303a20617070726f766520746f20746865207a65726f206164647265604482015261737360f01b6064820152608401610634565b6001600160a01b0383811660008181526001602090815260408083209487168084529482529182902085905590518481527f8c5be1e5ebec7d5bd14f71427d1e84f3dd0314c0f7b2291e5b200ac8c7c3b925910160405180910390a3505050565b60006107ca828461189e565b60006107ca828461187f565b6001600160a01b038381166000908152600160209081526040808320938616835292905220546000198114610f425781811015610f355760405162461bcd60e51b815260206004820152601d60248201527f45524332303a20696e73756666696369656e7420616c6c6f77616e63650000006044820152606401610634565b610f428484848403610d7a565b50505050565b6001600160a01b038316610fac5760405162461bcd60e51b815260206004820152602560248201527f45524332303a207472616e736665722066726f6d20746865207a65726f206164604482015264647265737360d81b6064820152608401610634565b6001600160a01b03821661100e5760405162461bcd60e51b815260206004820152602360248201527f45524332303a207472616e7366657220746f20746865207a65726f206164647260448201526265737360e81b6064820152608401610634565b6001600160a01b038316600090815260208190526040902054818110156110865760405162461bcd60e51b815260206004820152602660248201527f45524332303a207472616e7366657220616d6f756e7420657863656564732062604482015265616c616e636560d01b6064820152608401610634565b6001600160a01b038085166000908152602081905260408082208585039055918516815290812080548492906110bd908490611847565b92505081905550826001600160a01b0316846001600160a01b03167fddf252ad1be2c89b69c2b068fc378daa952ba7f163c4a11628f55a4df523b3ef8460405161110991815260200190565b60405180910390a3610f42565b6001600160a01b0381166111825760405162461bcd60e51b815260206004820152602d60248201527f6f70657261746f723a207a65726f206164647265737320676976656e20666f7260448201526c103732bb9037b832b930ba37b960991b6064820152608401610634565b6040516001600160a01b038216906000907f74da04524d50c64947f5dd5381ef1a4dca5cba8ed1d816243f9e48aa0b5617ed908290a3600680546001600160a01b0319166001600160a01b0392909216919091179055565b6107003382611288565b604080516001600160a01b038416602482015260448082018490528251808303909101815260649091019091526020810180516001600160e01b031663a9059cbb60e01b179052610a049084906113d6565b600580546001600160a01b038381166001600160a01b0319831681179093556040519116919082907f8be0079c531659141344cd1fd0a4f28419497f9722a3daafe3b4186f6b6457e090600090a35050565b6001600160a01b0382166112e85760405162461bcd60e51b815260206004820152602160248201527f45524332303a206275726e2066726f6d20746865207a65726f206164647265736044820152607360f81b6064820152608401610634565b6001600160a01b0382166000908152602081905260409020548181101561135c5760405162461bcd60e51b815260206004820152602260248201527f45524332303a206275726e20616d6f756e7420657863656564732062616c616e604482015261636560f01b6064820152608401610634565b6001600160a01b038316600090815260208190526040812083830390556002805484929061138b90849061189e565b90915550506040518281526000906001600160a01b038516907fddf252ad1be2c89b69c2b068fc378daa952ba7f163c4a11628f55a4df523b3ef9060200160405180910390a3610a04565b600061142b826040518060400160405280602081526020017f5361666545524332303a206c6f772d6c6576656c2063616c6c206661696c6564815250856001600160a01b03166114a89092919063ffffffff16565b805190915015610a04578080602001905181019061144991906116e8565b610a045760405162461bcd60e51b815260206004820152602a60248201527f5361666545524332303a204552433230206f7065726174696f6e20646964206e6044820152691bdd081cdd58d8d9595960b21b6064820152608401610634565b60606114b784846000856114bf565b949350505050565b6060824710156115205760405162461bcd60e51b815260206004820152602660248201527f416464726573733a20696e73756666696369656e742062616c616e636520666f6044820152651c8818d85b1b60d21b6064820152608401610634565b6001600160a01b0385163b6115775760405162461bcd60e51b815260206004820152601d60248201527f416464726573733a2063616c6c20746f206e6f6e2d636f6e74726163740000006044820152606401610634565b600080866001600160a01b031685876040516115939190611761565b60006040518083038185875af1925050503d80600081146115d0576040519150601f19603f3d011682016040523d82523d6000602084013e6115d5565b606091505b50915091506115e58282866115f0565b979650505050505050565b606083156115ff5750816107ca565b82511561160f5782518084602001fd5b8160405162461bcd60e51b8152600401610634919061177d565b60006020828403121561163a578081fd5b81356107ca81611932565b60008060408385031215611657578081fd5b823561166281611932565b9150602083013561167281611932565b809150509250929050565b600080600060608486031215611691578081fd5b833561169c81611932565b925060208401356116ac81611932565b929592945050506040919091013590565b600080604083850312156116cf578182fd5b82356116da81611932565b946020939093013593505050565b6000602082840312156116f9578081fd5b815180151581146107ca578182fd5b60008060006060848603121561171c578283fd5b833561172781611932565b925060208401359150604084013561173e81611932565b809150509250925092565b60006020828403121561175a578081fd5b5035919050565b600082516117738184602087016118b5565b9190910192915050565b600060208252825180602084015261179c8160408501602087016118b5565b601f01601f19169190910160400192915050565b6020808252600490820152637a65726f60e01b604082015260600190565b6020808252818101527f4f776e61626c653a2063616c6c6572206973206e6f7420746865206f776e6572604082015260600190565b60208082526024908201527f6f70657261746f723a2063616c6c6572206973206e6f7420746865206f70657260408201526330ba37b960e11b606082015260800190565b6000821982111561185a5761185a61191c565b500190565b60008261187a57634e487b7160e01b81526012600452602481fd5b500490565b60008160001904831182151516156118995761189961191c565b500290565b6000828210156118b0576118b061191c565b500390565b60005b838110156118d05781810151838201526020016118b8565b83811115610f425750506000910152565b600181811c908216806118f557607f821691505b6020821081141561191657634e487b7160e01b600052602260045260246000fd5b50919050565b634e487b7160e01b600052601160045260246000fd5b6001600160a01b038116811461070057600080fdfea264697066735822122042cffb985caa37295a2fa17d3feecf64444bf30e9ec25558db142081d38b8c9764736f6c63430008030033",
  "linkReferences": {},
  "deployedLinkReferences": {}
}