{
  "_format": "hh-sol-artifact-1",
  "contractName": "Boardroom",
  "sourceName": "contracts/Boardroom.sol",
  "abi": [
    {
      "anonymous": false,
      "inputs": [
        {
          "indexed": true,
          "internalType": "address",
          "name": "executor",
          "type": "address"
        },
        {
          "indexed": false,
          "internalType": "uint256",
          "name": "at",
          "type": "uint256"
        }
      ],
      "name": "Initialized",
      "type": "event"
    },
    {
      "anonymous": false,
      "inputs": [
        {
          "indexed": true,
          "internalType": "address",
          "name": "user",
          "type": "address"
        },
        {
          "indexed": false,
          "internalType": "uint256",
          "name": "reward",
          "type": "uint256"
        }
      ],
      "name": "RewardAdded",
      "type": "event"
    },
    {
      "anonymous": false,
      "inputs": [
        {
          "indexed": true,
          "internalType": "address",
          "name": "user",
          "type": "address"
        },
        {
          "indexed": false,
          "internalType": "uint256",
          "name": "reward",
          "type": "uint256"
        }
      ],
      "name": "RewardPaid",
      "type": "event"
    },
    {
      "anonymous": false,
      "inputs": [
        {
          "indexed": true,
          "internalType": "address",
          "name": "user",
          "type": "address"
        },
        {
          "indexed": false,
          "internalType": "uint256",
          "name": "amount",
          "type": "uint256"
        }
      ],
      "name": "Staked",
      "type": "event"
    },
    {
      "anonymous": false,
      "inputs": [
        {
          "indexed": true,
          "internalType": "address",
          "name": "user",
          "type": "address"
        },
        {
          "indexed": false,
          "internalType": "uint256",
          "name": "amount",
          "type": "uint256"
        }
      ],
      "name": "Withdrawn",
      "type": "event"
    },
    {
      "inputs": [],
      "name": "_10SHARE",
      "outputs": [
        {
          "internalType": "contract IERC20",
          "name": "",
          "type": "address"
        }
      ],
      "stateMutability": "view",
      "type": "function"
    },
    {
      "inputs": [],
      "name": "_10MB",
      "outputs": [
        {
          "internalType": "contract IERC20",
          "name": "",
          "type": "address"
        }
      ],
      "stateMutability": "view",
      "type": "function"
    },
    {
      "inputs": [
        {
          "internalType": "uint256",
          "name": "amount",
          "type": "uint256"
        }
      ],
      "name": "allocateSeigniorage",
      "outputs": [],
      "stateMutability": "nonpayable",
      "type": "function"
    },
    {
      "inputs": [
        {
          "internalType": "address",
          "name": "account",
          "type": "address"
        }
      ],
      "name": "balanceOf",
      "outputs": [
        {
          "internalType": "uint256",
          "name": "",
          "type": "uint256"
        }
      ],
      "stateMutability": "view",
      "type": "function"
    },
    {
      "inputs": [
        {
          "internalType": "uint256",
          "name": "",
          "type": "uint256"
        }
      ],
      "name": "boardHistory",
      "outputs": [
        {
          "internalType": "uint256",
          "name": "time",
          "type": "uint256"
        },
        {
          "internalType": "uint256",
          "name": "rewardReceived",
          "type": "uint256"
        },
        {
          "internalType": "uint256",
          "name": "rewardPerShare",
          "type": "uint256"
        }
      ],
      "stateMutability": "view",
      "type": "function"
    },
    {
      "inputs": [
        {
          "internalType": "address",
          "name": "director",
          "type": "address"
        }
      ],
      "name": "canClaimReward",
      "outputs": [
        {
          "internalType": "bool",
          "name": "",
          "type": "bool"
        }
      ],
      "stateMutability": "view",
      "type": "function"
    },
    {
      "inputs": [
        {
          "internalType": "address",
          "name": "director",
          "type": "address"
        }
      ],
      "name": "canWithdraw",
      "outputs": [
        {
          "internalType": "bool",
          "name": "",
          "type": "bool"
        }
      ],
      "stateMutability": "view",
      "type": "function"
    },
    {
      "inputs": [],
      "name": "claimReward",
      "outputs": [],
      "stateMutability": "nonpayable",
      "type": "function"
    },
    {
      "inputs": [
        {
          "internalType": "address",
          "name": "",
          "type": "address"
        }
      ],
      "name": "directors",
      "outputs": [
        {
          "internalType": "uint256",
          "name": "lastSnapshotIndex",
          "type": "uint256"
        },
        {
          "internalType": "uint256",
          "name": "rewardEarned",
          "type": "uint256"
        },
        {
          "internalType": "uint256",
          "name": "epochTimerStart",
          "type": "uint256"
        }
      ],
      "stateMutability": "view",
      "type": "function"
    },
    {
      "inputs": [
        {
          "internalType": "address",
          "name": "director",
          "type": "address"
        }
      ],
      "name": "earned",
      "outputs": [
        {
          "internalType": "uint256",
          "name": "",
          "type": "uint256"
        }
      ],
      "stateMutability": "view",
      "type": "function"
    },
    {
      "inputs": [],
      "name": "epoch",
      "outputs": [
        {
          "internalType": "uint256",
          "name": "",
          "type": "uint256"
        }
      ],
      "stateMutability": "view",
      "type": "function"
    },
    {
      "inputs": [],
      "name": "exit",
      "outputs": [],
      "stateMutability": "nonpayable",
      "type": "function"
    },
    {
      "inputs": [],
      "name": "get10MBPrice",
      "outputs": [
        {
          "internalType": "uint256",
          "name": "",
          "type": "uint256"
        }
      ],
      "stateMutability": "view",
      "type": "function"
    },
    {
      "inputs": [
        {
          "internalType": "address",
          "name": "director",
          "type": "address"
        }
      ],
      "name": "getLastSnapshotIndexOf",
      "outputs": [
        {
          "internalType": "uint256",
          "name": "",
          "type": "uint256"
        }
      ],
      "stateMutability": "view",
      "type": "function"
    },
    {
      "inputs": [
        {
          "internalType": "contract IERC20",
          "name": "_token",
          "type": "address"
        },
        {
          "internalType": "uint256",
          "name": "_amount",
          "type": "uint256"
        },
        {
          "internalType": "address",
          "name": "_to",
          "type": "address"
        }
      ],
      "name": "governanceRecoverUnsupported",
      "outputs": [],
      "stateMutability": "nonpayable",
      "type": "function"
    },
    {
      "inputs": [
        {
          "internalType": "contract IERC20",
          "name": "__10MB",
          "type": "address"
        },
        {
          "internalType": "contract IERC20",
          "name": "__10SHARE",
          "type": "address"
        },
        {
          "internalType": "contract ITreasury",
          "name": "_treasury",
          "type": "address"
        }
      ],
      "name": "initialize",
      "outputs": [],
      "stateMutability": "nonpayable",
      "type": "function"
    },
    {
      "inputs": [],
      "name": "initialized",
      "outputs": [
        {
          "internalType": "bool",
          "name": "",
          "type": "bool"
        }
      ],
      "stateMutability": "view",
      "type": "function"
    },
    {
      "inputs": [],
      "name": "latestSnapshotIndex",
      "outputs": [
        {
          "internalType": "uint256",
          "name": "",
          "type": "uint256"
        }
      ],
      "stateMutability": "view",
      "type": "function"
    },
    {
      "inputs": [],
      "name": "nextEpochPoint",
      "outputs": [
        {
          "internalType": "uint256",
          "name": "",
          "type": "uint256"
        }
      ],
      "stateMutability": "view",
      "type": "function"
    },
    {
      "inputs": [],
      "name": "operator",
      "outputs": [
        {
          "internalType": "address",
          "name": "",
          "type": "address"
        }
      ],
      "stateMutability": "view",
      "type": "function"
    },
    {
      "inputs": [],
      "name": "reserveFund",
      "outputs": [
        {
          "internalType": "address",
          "name": "",
          "type": "address"
        }
      ],
      "stateMutability": "view",
      "type": "function"
    },
    {
      "inputs": [],
      "name": "rewardLockupEpochs",
      "outputs": [
        {
          "internalType": "uint256",
          "name": "",
          "type": "uint256"
        }
      ],
      "stateMutability": "view",
      "type": "function"
    },
    {
      "inputs": [],
      "name": "rewardPerShare",
      "outputs": [
        {
          "internalType": "uint256",
          "name": "",
          "type": "uint256"
        }
      ],
      "stateMutability": "view",
      "type": "function"
    },
    {
      "inputs": [
        {
          "internalType": "uint256",
          "name": "_withdrawLockupEpochs",
          "type": "uint256"
        },
        {
          "internalType": "uint256",
          "name": "_rewardLockupEpochs",
          "type": "uint256"
        }
      ],
      "name": "setLockUp",
      "outputs": [],
      "stateMutability": "nonpayable",
      "type": "function"
    },
    {
      "inputs": [
        {
          "internalType": "address",
          "name": "_operator",
          "type": "address"
        }
      ],
      "name": "setOperator",
      "outputs": [],
      "stateMutability": "nonpayable",
      "type": "function"
    },
    {
      "inputs": [
        {
          "internalType": "address",
          "name": "_reserveFund",
          "type": "address"
        }
      ],
      "name": "setReserveFund",
      "outputs": [],
      "stateMutability": "nonpayable",
      "type": "function"
    },
    {
      "inputs": [
        {
          "internalType": "uint256",
          "name": "_stakeFee",
          "type": "uint256"
        }
      ],
      "name": "setStakeFee",
      "outputs": [],
      "stateMutability": "nonpayable",
      "type": "function"
    },
    {
      "inputs": [
        {
          "internalType": "uint256",
          "name": "_withdrawFee",
          "type": "uint256"
        }
      ],
      "name": "setWithdrawFee",
      "outputs": [],
      "stateMutability": "nonpayable",
      "type": "function"
    },
    {
      "inputs": [
        {
          "internalType": "uint256",
          "name": "amount",
          "type": "uint256"
        }
      ],
      "name": "stake",
      "outputs": [],
      "stateMutability": "nonpayable",
      "type": "function"
    },
    {
      "inputs": [],
      "name": "stakeFee",
      "outputs": [
        {
          "internalType": "uint256",
          "name": "",
          "type": "uint256"
        }
      ],
      "stateMutability": "view",
      "type": "function"
    },
    {
      "inputs": [],
      "name": "totalSupply",
      "outputs": [
        {
          "internalType": "uint256",
          "name": "",
          "type": "uint256"
        }
      ],
      "stateMutability": "view",
      "type": "function"
    },
    {
      "inputs": [],
      "name": "treasury",
      "outputs": [
        {
          "internalType": "contract ITreasury",
          "name": "",
          "type": "address"
        }
      ],
      "stateMutability": "view",
      "type": "function"
    },
    {
      "inputs": [
        {
          "internalType": "uint256",
          "name": "amount",
          "type": "uint256"
        }
      ],
      "name": "withdraw",
      "outputs": [],
      "stateMutability": "nonpayable",
      "type": "function"
    },
    {
      "inputs": [],
      "name": "withdrawFee",
      "outputs": [
        {
          "internalType": "uint256",
          "name": "",
          "type": "uint256"
        }
      ],
      "stateMutability": "view",
      "type": "function"
    },
    {
      "inputs": [],
      "name": "withdrawLockupEpochs",
      "outputs": [
        {
          "internalType": "uint256",
          "name": "",
          "type": "uint256"
        }
      ],
      "stateMutability": "view",
      "type": "function"
    }
  ],
  "bytecode": "0x60806040526004805460ff60a01b1916905534801561001d57600080fd5b506120b18061002d6000396000f3fe608060405234801561001057600080fd5b50600436106102105760003560e01c806385f851f211610125578063c0c53b8b116100ad578063e9fad8ee1161007c578063e9fad8ee1461044f578063f0ec943014610457578063f428ba56146104a1578063f498d8a6146104a9578063fd147b7f146104bc57610210565b8063c0c53b8b14610418578063c5967c261461042b578063e2d7bee414610433578063e941fa781461044657610210565b8063b3ab15fb116100f4578063b3ab15fb146103c4578063b601219d146103d7578063b6ac642a146103ea578063b7f92b71146103fd578063b88a802f1461041057610210565b806385f851f214610383578063900cf0cf1461039657806397ffe1d71461039e578063a694fc3a146103b157610210565b80632e1a7d4d116101a857806354575af41161017757806354575af4146102e0578063570ca735146102f357806361d027b31461031e57806370a0823114610331578063714b46581461035a57610210565b80632e1a7d4d146102a85780632ffaaa09146102bd5780633f9e3f04146102d0578063446a2ec8146102d857610210565b806318160ddd116101e457806318160ddd1461027b57806319262d30146102835780631e85cd6514610296578063222c97771461029f57610210565b80628cc26214610215578063022ba18d1461023b578063046335d014610244578063158ef93e14610267575b600080fd5b610228610223366004611dcc565b6104cf565b6040519081526020015b60405180910390f35b610228600a5481565b610257610252366004611dcc565b610560565b6040519015158152602001610232565b60045461025790600160a01b900460ff1681565b600254610228565b610257610291366004611dcc565b61060d565b61022860095481565b610228600d5481565b6102bb6102b6366004611e88565b6106b2565b005b6102bb6102cb366004611eb8565b610afc565b610228610b9a565b610228610bb0565b6102bb6102ee366004611e52565b610bc3565b600454610306906001600160a01b031681565b6040516001600160a01b039091168152602001610232565b600654610306906001600160a01b031681565b61022861033f366004611dcc565b6001600160a01b031660009081526003602052604090205490565b610228610368366004611dcc565b6001600160a01b031660009081526007602052604090205490565b600154610306906001600160a01b031681565b610228610c95565b6102bb6103ac366004611e88565b610d12565b6102bb6103bf366004611e88565b610fde565b6102bb6103d2366004611dcc565b6112df565b600554610306906001600160a01b031681565b6102bb6103f8366004611e88565b61132b565b600b54610306906001600160a01b031681565b6102bb6113ab565b6102bb610426366004611e08565b611647565b6102286117e5565b6102bb610441366004611e88565b61182a565b610228600c5481565b6102bb6118a0565b610486610465366004611dcc565b60076020526000908152604090208054600182015460029092015490919083565b60408051938452602084019290925290820152606001610232565b6102286118bb565b6102bb6104b7366004611dcc565b611900565b6104866104ca366004611e88565b6119b2565b6000806104da6119e5565b60400151905060006104eb84611a6d565b6040908101516001600160a01b03861660009081526007602052919091206001015490915061055890610552670de0b6b3a764000061054c61052d8787611b0e565b6001600160a01b038a1660009081526003602052604090205490611b21565b90611b2d565b90611b39565b949350505050565b6006546040805163900cf0cf60e01b815290516000926001600160a01b03169163900cf0cf916004808301926020929190829003018186803b1580156105a557600080fd5b505afa1580156105b9573d6000803e3d6000fd5b505050506040513d601f19601f820116820180604052508101906105dd9190611ea0565b600a546001600160a01b03841660009081526007602052604090206002015461060591611b39565b111592915050565b6006546040805163900cf0cf60e01b815290516000926001600160a01b03169163900cf0cf916004808301926020929190829003018186803b15801561065257600080fd5b505afa158015610666573d6000803e3d6000fd5b505050506040513d601f19601f8201168201806040525081019061068a9190611ea0565b6009546001600160a01b03841660009081526007602052604090206002015461060591611b39565b4360009081526020818152604080832032845290915290205460ff16156106f45760405162461bcd60e51b81526004016106eb90611f6d565b60405180910390fd5b4360009081526020818152604080832033845290915290205460ff161561072d5760405162461bcd60e51b81526004016106eb90611f6d565b4360009081526020818152604080832032845282528083208054600160ff199182168117909255338552828520805490911690911790556003909152812054116107c85760405162461bcd60e51b815260206004820152602660248201527f426f617264726f6f6d3a20546865206469726563746f7220646f6573206e6f7460448201526508195e1a5cdd60d21b60648201526084016106eb565b338015610859576001600160a01b0381166000908152600760209081526040918290208251606081018452815481526001820154928101929092526002015491810191909152610817826104cf565b6020820152610824610b9a565b81526001600160a01b038216600090815260076020908152604091829020835181559083015160018201559101516002909101555b600082116108a95760405162461bcd60e51b815260206004820152601c60248201527f426f617264726f6f6d3a2043616e6e6f7420776974686472617720300000000060448201526064016106eb565b600660009054906101000a90046001600160a01b03166001600160a01b031663900cf0cf6040518163ffffffff1660e01b815260040160206040518083038186803b1580156108f757600080fd5b505afa15801561090b573d6000803e3d6000fd5b505050506040513d601f19601f8201168201806040525081019061092f9190611ea0565b6009543360009081526007602052604090206002015461094e91611b39565b11156109a85760405162461bcd60e51b815260206004820152602360248201527f426f617264726f6f6d3a207374696c6c20696e207769746864726177206c6f6360448201526206b75760ec1b60648201526084016106eb565b6109b06113ab565b3360009081526003602052604090205482811015610a2f5760405162461bcd60e51b815260206004820152603660248201527f426f617264726f6f6d3a207769746864726177207265717565737420677265616044820152751d195c881d1a185b881cdd185ad95908185b5bdd5b9d60521b60648201526084016106eb565b600254610a3c9084611b0e565b600255610a498184611b0e565b33600090815260036020526040902055600c5415610aab576000610a7d606461054c600c5487611b2190919063ffffffff16565b600b54600154919250610a9d916001600160a01b03908116911683611b45565b610aa78482611b0e565b9350505b600154610ac2906001600160a01b03163385611b45565b60405183815233907f7084f5476618d8e60b11ef0d7d3f06914655adb8793e28ff7f018d4c76d505d59060200160405180910390a2505050565b6004546001600160a01b03163314610b265760405162461bcd60e51b81526004016106eb90611f28565b808210158015610b375750602a8211155b610b8f5760405162461bcd60e51b815260206004820152602360248201527f5f77697468647261774c6f636b757045706f6368733a206f7574206f662072616044820152626e676560e81b60648201526084016106eb565b600991909155600a55565b600854600090610bab906001611b0e565b905090565b6000610bba6119e5565b60400151905090565b6004546001600160a01b03163314610bed5760405162461bcd60e51b81526004016106eb90611f28565b6005546001600160a01b0384811691161415610c335760405162461bcd60e51b81526020600482015260056024820152642f989836b160d91b60448201526064016106eb565b6001546001600160a01b0384811691161415610c7c5760405162461bcd60e51b81526020600482015260086024820152675f3130534841524560c01b60448201526064016106eb565b610c906001600160a01b0384168284611b45565b505050565b6006546040805163900cf0cf60e01b815290516000926001600160a01b03169163900cf0cf916004808301926020929190829003018186803b158015610cda57600080fd5b505afa158015610cee573d6000803e3d6000fd5b505050506040513d601f19601f82011682018060405250810190610bab9190611ea0565b4360009081526020818152604080832032845290915290205460ff1615610d4b5760405162461bcd60e51b81526004016106eb90611f6d565b4360009081526020818152604080832033845290915290205460ff1615610d845760405162461bcd60e51b81526004016106eb90611f6d565b436000908152602081815260408083203284529091528082208054600160ff19918216811790925533808552929093208054909316179091556004546001600160a01b031614610de65760405162461bcd60e51b81526004016106eb90611f28565b60008111610e365760405162461bcd60e51b815260206004820152601c60248201527f426f617264726f6f6d3a2043616e6e6f7420616c6c6f6361746520300000000060448201526064016106eb565b6000610e4160025490565b11610ea75760405162461bcd60e51b815260206004820152603060248201527f426f617264726f6f6d3a2043616e6e6f7420616c6c6f63617465207768656e2060448201526f0746f74616c537570706c7920697320360841b60648201526084016106eb565b6000610eb16119e5565b6040015190506000610ee1610eda610ec860025490565b61054c86670de0b6b3a7640000611b21565b8390611b39565b60408051606081018252438152602081018681529181018381526008805460018101825560009190915282517ff3f7a9fe364faab93b216da50a3214154f22a0a2b415b23a84c8169e8b636ee360039092029182015592517ff3f7a9fe364faab93b216da50a3214154f22a0a2b415b23a84c8169e8b636ee4840155517ff3f7a9fe364faab93b216da50a3214154f22a0a2b415b23a84c8169e8b636ee59092019190915560055491925090610fa2906001600160a01b0316333087611ba8565b60405184815233907fac24935fd910bc682b5ccb1a07b718cadf8cf2f6d1404c4f3ddc3662dae40e29906020015b60405180910390a250505050565b4360009081526020818152604080832032845290915290205460ff16156110175760405162461bcd60e51b81526004016106eb90611f6d565b4360009081526020818152604080832033845290915290205460ff16156110505760405162461bcd60e51b81526004016106eb90611f6d565b436000908152602081815260408083203284529091528082208054600160ff19918216811790925533808552929093208054909316179091558015611119576001600160a01b03811660009081526007602090815260409182902082516060810184528154815260018201549281019290925260020154918101919091526110d7826104cf565b60208201526110e4610b9a565b81526001600160a01b038216600090815260076020908152604091829020835181559083015160018201559101516002909101555b600082116111695760405162461bcd60e51b815260206004820152601960248201527f426f617264726f6f6d3a2043616e6e6f74207374616b6520300000000000000060448201526064016106eb565b600154611181906001600160a01b0316333085611ba8565b600d54156111d35760006111a5606461054c600d5486611b2190919063ffffffff16565b600b546001549192506111c5916001600160a01b03908116911683611b45565b6111cf8382611b0e565b9250505b6002546111e09083611b39565b600255336000908152600360205260409020546111fd9083611b39565b3360009081526003602090815260409182902092909255600654815163900cf0cf60e01b815291516001600160a01b039091169263900cf0cf9260048082019391829003018186803b15801561125257600080fd5b505afa158015611266573d6000803e3d6000fd5b505050506040513d601f19601f8201168201806040525081019061128a9190611ea0565b33600081815260076020526040908190206002019290925590517f9e71bc8eea02a63969f509818f2dafb9254532904319f9dbda79b67bd34a5f3d906112d39085815260200190565b60405180910390a25050565b6004546001600160a01b031633146113095760405162461bcd60e51b81526004016106eb90611f28565b600480546001600160a01b0319166001600160a01b0392909216919091179055565b6004546001600160a01b031633146113555760405162461bcd60e51b81526004016106eb90611f28565b60148111156113a65760405162461bcd60e51b815260206004820152601760248201527f4d6178207769746864726177206665652069732032302500000000000000000060448201526064016106eb565b600c55565b33801561143c576001600160a01b03811660009081526007602090815260409182902082516060810184528154815260018201549281019290925260020154918101919091526113fa826104cf565b6020820152611407610b9a565b81526001600160a01b038216600090815260076020908152604091829020835181559083015160018201559101516002909101555b33600090815260076020526040902060010154801561164357600660009054906101000a90046001600160a01b03166001600160a01b031663900cf0cf6040518163ffffffff1660e01b815260040160206040518083038186803b1580156114a357600080fd5b505afa1580156114b7573d6000803e3d6000fd5b505050506040513d601f19601f820116820180604052508101906114db9190611ea0565b600a54336000908152600760205260409020600201546114fa91611b39565b11156115525760405162461bcd60e51b815260206004820152602160248201527f426f617264726f6f6d3a207374696c6c20696e20726577617264206c6f636b756044820152600760fc1b60648201526084016106eb565b600660009054906101000a90046001600160a01b03166001600160a01b031663900cf0cf6040518163ffffffff1660e01b815260040160206040518083038186803b1580156115a057600080fd5b505afa1580156115b4573d6000803e3d6000fd5b505050506040513d601f19601f820116820180604052508101906115d89190611ea0565b3360008181526007602052604081206002810193909355600190920191909155600554611611916001600160a01b039091169083611b45565b60405181815233907fe2403640ba68fed3a2f88b7557551d1993f84b99bb10ff833f0cf8db0c5e0486906020016112d3565b5050565b600454600160a01b900460ff16156116a15760405162461bcd60e51b815260206004820152601e60248201527f426f617264726f6f6d3a20616c726561647920696e697469616c697a6564000060448201526064016106eb565b600580546001600160a01b038581166001600160a01b0319928316179092556001805485841690831617815560068054938516939092169290921781556002600d556000600c8190556040805160608101825243808252602080830185815283850186815260088054998a018155909652835160039889027ff3f7a9fe364faab93b216da50a3214154f22a0a2b415b23a84c8169e8b636ee381019190915590517ff3f7a9fe364faab93b216da50a3214154f22a0a2b415b23a84c8169e8b636ee482015594517ff3f7a9fe364faab93b216da50a3214154f22a0a2b415b23a84c8169e8b636ee590950194909455600994909455600a94909455600480546001600160a81b03191633908117600160a01b179091559051928352917f25ff68dd81b34665b5ba7e553ee5511bf6812e12adb4a7e2c0d9e26b3099ce799101610fd0565b600654604080516362cb3e1360e11b815290516000926001600160a01b03169163c5967c26916004808301926020929190829003018186803b158015610cda57600080fd5b6004546001600160a01b031633146118545760405162461bcd60e51b81526004016106eb90611f28565b600581111561189b5760405162461bcd60e51b81526020600482015260136024820152724d6178207374616b652066656520697320352560681b60448201526064016106eb565b600d55565b336000908152600360205260409020546118b9906102b6565b565b60065460408051637a145d2b60e11b815290516000926001600160a01b03169163f428ba56916004808301926020929190829003018186803b158015610cda57600080fd5b6004546001600160a01b0316331461192a5760405162461bcd60e51b81526004016106eb90611f28565b6001600160a01b0381166119905760405162461bcd60e51b815260206004820152602760248201527f7265736572766546756e6420616464726573732063616e6e6f742062652030206044820152666164647265737360c81b60648201526084016106eb565b600b80546001600160a01b0319166001600160a01b0392909216919091179055565b600881815481106119c257600080fd5b600091825260209091206003909102018054600182015460029092015490925083565b611a0960405180606001604052806000815260200160008152602001600081525090565b6008611a13610b9a565b81548110611a3157634e487b7160e01b600052603260045260246000fd5b90600052602060002090600302016040518060600160405290816000820154815260200160018201548152602001600282015481525050905090565b611a9160405180606001604052806000815260200160008152602001600081525090565b6008611ab2836001600160a01b031660009081526007602052604090205490565b81548110611ad057634e487b7160e01b600052603260045260246000fd5b906000526020600020906003020160405180606001604052908160008201548152602001600182015481526020016002820154815250509050919050565b6000611b1a828461200a565b9392505050565b6000611b1a8284611feb565b6000611b1a8284611fcb565b6000611b1a8284611fb3565b6040516001600160a01b038316602482015260448101829052610c9090849063a9059cbb60e01b906064015b60408051601f198184030181529190526020810180516001600160e01b03166001600160e01b031990931692909217909152611be6565b6040516001600160a01b0380851660248301528316604482015260648101829052611be09085906323b872dd60e01b90608401611b71565b50505050565b6000611c3b826040518060400160405280602081526020017f5361666545524332303a206c6f772d6c6576656c2063616c6c206661696c6564815250856001600160a01b0316611cb89092919063ffffffff16565b805190915015610c905780806020019051810190611c599190611de8565b610c905760405162461bcd60e51b815260206004820152602a60248201527f5361666545524332303a204552433230206f7065726174696f6e20646964206e6044820152691bdd081cdd58d8d9595960b21b60648201526084016106eb565b60606105588484600085856001600160a01b0385163b611d1a5760405162461bcd60e51b815260206004820152601d60248201527f416464726573733a2063616c6c20746f206e6f6e2d636f6e747261637400000060448201526064016106eb565b600080866001600160a01b03168587604051611d369190611ed9565b60006040518083038185875af1925050503d8060008114611d73576040519150601f19603f3d011682016040523d82523d6000602084013e611d78565b606091505b5091509150611d88828286611d93565b979650505050505050565b60608315611da2575081611b1a565b825115611db25782518084602001fd5b8160405162461bcd60e51b81526004016106eb9190611ef5565b600060208284031215611ddd578081fd5b8135611b1a81612063565b600060208284031215611df9578081fd5b81518015158114611b1a578182fd5b600080600060608486031215611e1c578182fd5b8335611e2781612063565b92506020840135611e3781612063565b91506040840135611e4781612063565b809150509250925092565b600080600060608486031215611e66578283fd5b8335611e7181612063565b9250602084013591506040840135611e4781612063565b600060208284031215611e99578081fd5b5035919050565b600060208284031215611eb1578081fd5b5051919050565b60008060408385031215611eca578182fd5b50508035926020909101359150565b60008251611eeb818460208701612021565b9190910192915050565b6000602082528251806020840152611f14816040850160208701612021565b601f01601f19169190910160400192915050565b60208082526025908201527f426f617264726f6f6d3a2063616c6c6572206973206e6f7420746865206f70656040820152643930ba37b960d91b606082015260800190565b60208082526026908201527f436f6e747261637447756172643a206f6e6520626c6f636b2c206f6e652066756040820152653731ba34b7b760d11b606082015260800190565b60008219821115611fc657611fc661204d565b500190565b600082611fe657634e487b7160e01b81526012600452602481fd5b500490565b60008160001904831182151516156120055761200561204d565b500290565b60008282101561201c5761201c61204d565b500390565b60005b8381101561203c578181015183820152602001612024565b83811115611be05750506000910152565b634e487b7160e01b600052601160045260246000fd5b6001600160a01b038116811461207857600080fd5b5056fea2646970667358221220c3637462231273beecbfef6812b3b7d41ae978503351df2e9e7a387a6adfc76864736f6c63430008030033",
  "linkReferences": {},
  "deployedLinkReferences": {}
}