{
  "_format": "hh-sol-artifact-1",
  "contractName": "Oracle",
  "sourceName": "contracts/Oracle.sol",
  "abi": [
    {
      "inputs": [
        {
          "internalType": "contract IUniswapV2Pair",
          "name": "_pair",
          "type": "address"
        },
        {
          "internalType": "uint256",
          "name": "_period",
          "type": "uint256"
        },
        {
          "internalType": "uint256",
          "name": "_startTime",
          "type": "uint256"
        }
      ],
      "stateMutability": "nonpayable",
      "type": "constructor"
    },
    {
      "anonymous": false,
      "inputs": [
        {
          "indexed": true,
          "internalType": "address",
          "name": "previousOperator",
          "type": "address"
        },
        {
          "indexed": true,
          "internalType": "address",
          "name": "newOperator",
          "type": "address"
        }
      ],
      "name": "OperatorTransferred",
      "type": "event"
    },
    {
      "anonymous": false,
      "inputs": [
        {
          "indexed": true,
          "internalType": "address",
          "name": "previousOwner",
          "type": "address"
        },
        {
          "indexed": true,
          "internalType": "address",
          "name": "newOwner",
          "type": "address"
        }
      ],
      "name": "OwnershipTransferred",
      "type": "event"
    },
    {
      "anonymous": false,
      "inputs": [
        {
          "indexed": false,
          "internalType": "uint256",
          "name": "price0CumulativeLast",
          "type": "uint256"
        },
        {
          "indexed": false,
          "internalType": "uint256",
          "name": "price1CumulativeLast",
          "type": "uint256"
        }
      ],
      "name": "Updated",
      "type": "event"
    },
    {
      "inputs": [],
      "name": "blockTimestampLast",
      "outputs": [
        {
          "internalType": "uint32",
          "name": "",
          "type": "uint32"
        }
      ],
      "stateMutability": "view",
      "type": "function"
    },
    {
      "inputs": [
        {
          "internalType": "address",
          "name": "_token",
          "type": "address"
        },
        {
          "internalType": "uint256",
          "name": "_amountIn",
          "type": "uint256"
        }
      ],
      "name": "consult",
      "outputs": [
        {
          "internalType": "uint144",
          "name": "amountOut",
          "type": "uint144"
        }
      ],
      "stateMutability": "view",
      "type": "function"
    },
    {
      "inputs": [],
      "name": "getCurrentEpoch",
      "outputs": [
        {
          "internalType": "uint256",
          "name": "",
          "type": "uint256"
        }
      ],
      "stateMutability": "view",
      "type": "function"
    },
    {
      "inputs": [],
      "name": "getLastEpochTime",
      "outputs": [
        {
          "internalType": "uint256",
          "name": "",
          "type": "uint256"
        }
      ],
      "stateMutability": "view",
      "type": "function"
    },
    {
      "inputs": [],
      "name": "getPeriod",
      "outputs": [
        {
          "internalType": "uint256",
          "name": "",
          "type": "uint256"
        }
      ],
      "stateMutability": "view",
      "type": "function"
    },
    {
      "inputs": [],
      "name": "getStartTime",
      "outputs": [
        {
          "internalType": "uint256",
          "name": "",
          "type": "uint256"
        }
      ],
      "stateMutability": "view",
      "type": "function"
    },
    {
      "inputs": [],
      "name": "isOperator",
      "outputs": [
        {
          "internalType": "bool",
          "name": "",
          "type": "bool"
        }
      ],
      "stateMutability": "view",
      "type": "function"
    },
    {
      "inputs": [],
      "name": "nextEpochPoint",
      "outputs": [
        {
          "internalType": "uint256",
          "name": "",
          "type": "uint256"
        }
      ],
      "stateMutability": "view",
      "type": "function"
    },
    {
      "inputs": [],
      "name": "operator",
      "outputs": [
        {
          "internalType": "address",
          "name": "",
          "type": "address"
        }
      ],
      "stateMutability": "view",
      "type": "function"
    },
    {
      "inputs": [],
      "name": "owner",
      "outputs": [
        {
          "internalType": "address",
          "name": "",
          "type": "address"
        }
      ],
      "stateMutability": "view",
      "type": "function"
    },
    {
      "inputs": [],
      "name": "pair",
      "outputs": [
        {
          "internalType": "contract IUniswapV2Pair",
          "name": "",
          "type": "address"
        }
      ],
      "stateMutability": "view",
      "type": "function"
    },
    {
      "inputs": [],
      "name": "price0Average",
      "outputs": [
        {
          "internalType": "uint224",
          "name": "_x",
          "type": "uint224"
        }
      ],
      "stateMutability": "view",
      "type": "function"
    },
    {
      "inputs": [],
      "name": "price0CumulativeLast",
      "outputs": [
        {
          "internalType": "uint256",
          "name": "",
          "type": "uint256"
        }
      ],
      "stateMutability": "view",
      "type": "function"
    },
    {
      "inputs": [],
      "name": "price1Average",
      "outputs": [
        {
          "internalType": "uint224",
          "name": "_x",
          "type": "uint224"
        }
      ],
      "stateMutability": "view",
      "type": "function"
    },
    {
      "inputs": [],
      "name": "price1CumulativeLast",
      "outputs": [
        {
          "internalType": "uint256",
          "name": "",
          "type": "uint256"
        }
      ],
      "stateMutability": "view",
      "type": "function"
    },
    {
      "inputs": [],
      "name": "renounceOwnership",
      "outputs": [],
      "stateMutability": "nonpayable",
      "type": "function"
    },
    {
      "inputs": [
        {
          "internalType": "uint256",
          "name": "_epoch",
          "type": "uint256"
        }
      ],
      "name": "setEpoch",
      "outputs": [],
      "stateMutability": "nonpayable",
      "type": "function"
    },
    {
      "inputs": [
        {
          "internalType": "uint256",
          "name": "_period",
          "type": "uint256"
        }
      ],
      "name": "setPeriod",
      "outputs": [],
      "stateMutability": "nonpayable",
      "type": "function"
    },
    {
      "inputs": [],
      "name": "token0",
      "outputs": [
        {
          "internalType": "address",
          "name": "",
          "type": "address"
        }
      ],
      "stateMutability": "view",
      "type": "function"
    },
    {
      "inputs": [],
      "name": "token1",
      "outputs": [
        {
          "internalType": "address",
          "name": "",
          "type": "address"
        }
      ],
      "stateMutability": "view",
      "type": "function"
    },
    {
      "inputs": [
        {
          "internalType": "address",
          "name": "newOperator_",
          "type": "address"
        }
      ],
      "name": "transferOperator",
      "outputs": [],
      "stateMutability": "nonpayable",
      "type": "function"
    },
    {
      "inputs": [
        {
          "internalType": "address",
          "name": "newOwner",
          "type": "address"
        }
      ],
      "name": "transferOwnership",
      "outputs": [],
      "stateMutability": "nonpayable",
      "type": "function"
    },
    {
      "inputs": [
        {
          "internalType": "address",
          "name": "_token",
          "type": "address"
        },
        {
          "internalType": "uint256",
          "name": "_amountIn",
          "type": "uint256"
        }
      ],
      "name": "twap",
      "outputs": [
        {
          "internalType": "uint144",
          "name": "_amountOut",
          "type": "uint144"
        }
      ],
      "stateMutability": "view",
      "type": "function"
    },
    {
      "inputs": [],
      "name": "update",
      "outputs": [],
      "stateMutability": "nonpayable",
      "type": "function"
    }
  ],
  "bytecode": "0x60806040523480156200001157600080fd5b5060405162001758380380620017588339810160408190526200003491620004be565b8181600062000043336200041d565b600180546001600160a01b031916339081179091556040516000907f74da04524d50c64947f5dd5381ef1a4dca5cba8ed1d816243f9e48aa0b5617ed908290a3600283905560038290556005819055620000aa82846200046d602090811b62000a5f17901c565b6004908155600880546001600160a01b0319166001600160a01b03891690811790915560408051630dfe168160e01b81529051919550630dfe16819450808301935060209290829003018186803b1580156200010557600080fd5b505afa1580156200011a573d6000803e3d6000fd5b505050506040513d601f19601f820116820180604052508101906200014091906200049f565b600680546001600160a01b0319166001600160a01b039283161790556008546040805163d21220a760e01b81529051919092169163d21220a7916004808301926020929190829003018186803b1580156200019a57600080fd5b505afa158015620001af573d6000803e3d6000fd5b505050506040513d601f19601f82011682018060405250810190620001d591906200049f565b600780546001600160a01b0319166001600160a01b0392831617905560085460408051635909c0d560e01b815290519190921691635909c0d5916004808301926020929190829003018186803b1580156200022f57600080fd5b505afa15801562000244573d6000803e3d6000fd5b505050506040513d601f19601f820116820180604052508101906200026a91906200054b565b60095560085460408051635a3d549360e01b815290516001600160a01b0390921691635a3d549391600480820192602092909190829003018186803b158015620002b357600080fd5b505afa158015620002c8573d6000803e3d6000fd5b505050506040513d601f19601f82011682018060405250810190620002ee91906200054b565b600a5560085460408051630240bc6b60e21b8152905160009283926001600160a01b0390911691630902f1ac91600480820192606092909190829003018186803b1580156200033c57600080fd5b505afa15801562000351573d6000803e3d6000fd5b505050506040513d601f19601f82011682018060405250810190620003779190620004f7565b6008805463ffffffff909216600160a01b0263ffffffff60a01b1990921691909117905590925090506001600160701b03821615801590620003c157506001600160701b03811615155b620004125760405162461bcd60e51b815260206004820152601360248201527f4f7261636c653a204e4f5f524553455256455300000000000000000000000000604482015260640160405180910390fd5b5050505050620005a1565b600080546001600160a01b038381166001600160a01b0319831681178455604051919092169283917f8be0079c531659141344cd1fd0a4f28419497f9722a3daafe3b4186f6b6457e09190a35050565b60006200047b828462000564565b9392505050565b80516001600160701b03811681146200049a57600080fd5b919050565b600060208284031215620004b1578081fd5b81516200047b8162000588565b600080600060608486031215620004d3578182fd5b8351620004e08162000588565b602085015160409095015190969495509392505050565b6000806000606084860312156200050c578283fd5b620005178462000482565b9250620005276020850162000482565b9150604084015163ffffffff8116811462000540578182fd5b809150509250925092565b6000602082840312156200055d578081fd5b5051919050565b6000828210156200058357634e487b7160e01b81526011600452602481fd5b500390565b6001600160a01b03811681146200059e57600080fd5b50565b6111a780620005b16000396000f3fe608060405234801561001057600080fd5b50600436106101585760003560e01c8063715018a6116100c3578063ba5224581161007c578063ba522458146102de578063c5700a02146102e6578063c5967c2614610312578063c828371e1461031a578063d21220a714610322578063f2fde38b1461033557610158565b8063715018a61461028f5780638da5cb5b14610297578063a2e62045146102a8578063a6bb4539146102b0578063a8aa1b31146102c3578063b97dd9e2146102d657610158565b80634456eda2116101155780634456eda214610210578063570ca7351461022e5780635909c0d51461023f5780635a3d5493146102485780635e6aaf2c146102515780636808a1281461027c57610158565b80630ceb2cef1461015d5780630dfe1681146101725780630f3a9f65146101a25780631ed24195146101b557806329605e77146101c75780633ddac953146101da575b600080fd5b61017061016b366004610fc0565b610348565b005b600654610185906001600160a01b031681565b6040516001600160a01b0390911681526020015b60405180910390f35b6101706101b0366004610fc0565b610380565b6002545b604051908152602001610199565b6101706101d5366004610f2f565b610408565b6101ed6101e8366004610f49565b61043e565b60405171ffffffffffffffffffffffffffffffffffff9091168152602001610199565b6001546001600160a01b031633146040519015158152602001610199565b6001546001600160a01b0316610185565b6101b960095481565b6101b9600a5481565b600c54610264906001600160e01b031681565b6040516001600160e01b039091168152602001610199565b6101ed61028a366004610f49565b61050f565b6101706105fe565b6000546001600160a01b0316610185565b610170610634565b600b54610264906001600160e01b031681565b600854610185906001600160a01b031681565b6005546101b9565b6004546101b9565b6008546102fd90600160a01b900463ffffffff1681565b60405163ffffffff9091168152602001610199565b6101b96109a9565b6003546101b9565b600754610185906001600160a01b031681565b610170610343366004610f2f565b6109c7565b6001546001600160a01b0316331461037b5760405162461bcd60e51b815260040161037290611025565b60405180910390fd5b600555565b6001546001600160a01b031633146103aa5760405162461bcd60e51b815260040161037290611025565b610e1081101580156103bf57506202a3008111155b6104035760405162461bcd60e51b81526020600482015260156024820152745f706572696f643a206f7574206f662072616e676560581b6044820152606401610372565b600255565b6000546001600160a01b031633146104325760405162461bcd60e51b815260040161037290610ff0565b61043b81610a6b565b50565b6006546000906001600160a01b038481169116141561048a576040805160208101909152600b546001600160e01b031681526104839061047e9084610b2f565b610bd9565b9050610509565b6007546001600160a01b038481169116146104df5760405162461bcd60e51b815260206004820152601560248201527427b930b1b6329d1024a72b20a624a22faa27a5a2a760591b6044820152606401610372565b6040805160208101909152600c546001600160e01b031681526105069061047e9084610b2f565b90505b92915050565b60085460009081908190819061052d906001600160a01b0316610be4565b600854929550909350915060009061055290600160a01b900463ffffffff16836110f1565b6006549091506001600160a01b03888116911614156105b4576105ad61047e8760405180602001604052808563ffffffff166009548a61059291906110da565b61059c91906110a7565b6001600160e01b0316905290610b2f565b94506105f4565b6007546001600160a01b03888116911614156105f4576105f161047e8760405180602001604052808563ffffffff16600a548961059291906110da565b94505b5050505092915050565b6000546001600160a01b031633146106285760405162461bcd60e51b815260040161037290610ff0565b6106326000610de4565b565b600061063e6109a9565b905080421015610817576001546001600160a01b031633146106b55760405162461bcd60e51b815260206004820152602a60248201527f45706f63683a206f6e6c79206f70657261746f7220616c6c6f77656420666f72604482015269040e0e4ca5acae0dec6d60b31b6064820152608401610372565b600854600090819081906106d1906001600160a01b0316610be4565b60085492955090935091506000906106f690600160a01b900463ffffffff16836110f1565b905063ffffffff811661070c5750505050610812565b60405180602001604052808263ffffffff166009548761072c91906110da565b61073691906110a7565b6001600160e01b039081169091529051600b80546001600160e01b031916919092161790556040805160208101909152600a54819063ffffffff84169061077d90876110da565b61078791906110a7565b6001600160e01b039081169091529051600c80546001600160e01b031916919092161790556009849055600a8390556008805463ffffffff60a01b1916600160a01b63ffffffff85160217905560408051858152602081018590527fd78a0cb8bb633d06981248b816e7bd33c2a35a6089241d099fa519e361cab902910160405180910390a1505050505b61043b565b60085460009081908190610833906001600160a01b0316610be4565b600854929550909350915060009061085890600160a01b900463ffffffff16836110f1565b905063ffffffff811661086e5750505050610974565b60405180602001604052808263ffffffff166009548761088e91906110da565b61089891906110a7565b6001600160e01b039081169091529051600b80546001600160e01b031916919092161790556040805160208101909152600a54819063ffffffff8416906108df90876110da565b6108e991906110a7565b6001600160e01b039081169091529051600c80546001600160e01b031916919092161790556009849055600a8390556008805463ffffffff60a01b1916600160a01b63ffffffff85160217905560408051858152602081018590527fd78a0cb8bb633d06981248b816e7bd33c2a35a6089241d099fa519e361cab902910160405180910390a1505050505b60048190556005805460009061098990611116565b909155506109956109a9565b9050804210156109a45761043b565b610974565b60006109c2600254600454610e3490919063ffffffff16565b905090565b6000546001600160a01b031633146109f15760405162461bcd60e51b815260040161037290610ff0565b6001600160a01b038116610a565760405162461bcd60e51b815260206004820152602660248201527f4f776e61626c653a206e6577206f776e657220697320746865207a65726f206160448201526564647265737360d01b6064820152608401610372565b61043b81610de4565b600061050682846110da565b6001600160a01b038116610ad75760405162461bcd60e51b815260206004820152602d60248201527f6f70657261746f723a207a65726f206164647265737320676976656e20666f7260448201526c103732bb9037b832b930ba37b960991b6064820152608401610372565b6040516001600160a01b038216906000907f74da04524d50c64947f5dd5381ef1a4dca5cba8ed1d816243f9e48aa0b5617ed908290a3600180546001600160a01b0319166001600160a01b0392909216919091179055565b6040805160208101909152600081526000821580610b6c575083516001600160e01b031683610b5e81836110bb565b9250610b6a90836110a7565b145b610bc45760405162461bcd60e51b815260206004820152602360248201527f4669786564506f696e743a204d554c5449504c49434154494f4e5f4f564552466044820152624c4f5760e81b6064820152608401610372565b60408051602081019091529081529392505050565b805160701c5b919050565b6000806000610bf1610e40565b9050836001600160a01b0316635909c0d56040518163ffffffff1660e01b815260040160206040518083038186803b158015610c2c57600080fd5b505afa158015610c40573d6000803e3d6000fd5b505050506040513d601f19601f82011682018060405250810190610c649190610fd8565b9250836001600160a01b0316635a3d54936040518163ffffffff1660e01b815260040160206040518083038186803b158015610c9f57600080fd5b505afa158015610cb3573d6000803e3d6000fd5b505050506040513d601f19601f82011682018060405250810190610cd79190610fd8565b91506000806000866001600160a01b0316630902f1ac6040518163ffffffff1660e01b815260040160606040518083038186803b158015610d1757600080fd5b505afa158015610d2b573d6000803e3d6000fd5b505050506040513d601f19601f82011682018060405250810190610d4f9190610f72565b9250925092508363ffffffff168163ffffffff1614610dda576000610d7482866110f1565b90508063ffffffff16610d878486610e51565b51610d9b91906001600160e01b03166110bb565b610da59088611069565b96508063ffffffff16610db88585610e51565b51610dcc91906001600160e01b03166110bb565b610dd69087611069565b9550505b5050509193909250565b600080546001600160a01b038381166001600160a01b0319831681178455604051919092169283917f8be0079c531659141344cd1fd0a4f28419497f9722a3daafe3b4186f6b6457e09190a35050565b60006105068284611069565b60006109c264010000000042611131565b6040805160208101909152600081526000826001600160701b031611610eb95760405162461bcd60e51b815260206004820152601760248201527f4669786564506f696e743a204449565f42595f5a45524f0000000000000000006044820152606401610372565b604080516020810190915280610eef6001600160701b0385166dffffffffffffffffffffffffffff60701b607088901b16611081565b6001600160e01b031690529392505050565b80356001600160a01b0381168114610bdf57600080fd5b80516001600160701b0381168114610bdf57600080fd5b600060208284031215610f40578081fd5b61050682610f01565b60008060408385031215610f5b578081fd5b610f6483610f01565b946020939093013593505050565b600080600060608486031215610f86578081fd5b610f8f84610f18565b9250610f9d60208501610f18565b9150604084015163ffffffff81168114610fb5578182fd5b809150509250925092565b600060208284031215610fd1578081fd5b5035919050565b600060208284031215610fe9578081fd5b5051919050565b6020808252818101527f4f776e61626c653a2063616c6c6572206973206e6f7420746865206f776e6572604082015260600190565b60208082526024908201527f6f70657261746f723a2063616c6c6572206973206e6f7420746865206f70657260408201526330ba37b960e11b606082015260800190565b6000821982111561107c5761107c611145565b500190565b60006001600160e01b038381168061109b5761109b61115b565b92169190910492915050565b6000826110b6576110b661115b565b500490565b60008160001904831182151516156110d5576110d5611145565b500290565b6000828210156110ec576110ec611145565b500390565b600063ffffffff8381169083168181101561110e5761110e611145565b039392505050565b600060001982141561112a5761112a611145565b5060010190565b6000826111405761114061115b565b500690565b634e487b7160e01b600052601160045260246000fd5b634e487b7160e01b600052601260045260246000fdfea26469706673582212208b0b69885ab511cc4c5551805a17c8d8e731688b3af05ad97870b3cf2403ddf564736f6c63430008030033",
  "linkReferences": {},
  "deployedLinkReferences": {}
}