{
  "_format": "hh-sol-artifact-1",
  "contractName": "Pool",
  "sourceName": "contracts/Pool.sol",
  "abi": [
    {
      "inputs": [
        {
          "internalType": "address",
          "name": "__10MB",
          "type": "address"
        },
        {
          "internalType": "address",
          "name": "__10SHARE",
          "type": "address"
        },
        {
          "internalType": "address",
          "name": "_collateral",
          "type": "address"
        },
        {
          "internalType": "address",
          "name": "_treasury",
          "type": "address"
        },
        {
          "internalType": "uint256",
          "name": "_pool_ceiling",
          "type": "uint256"
        }
      ],
      "stateMutability": "nonpayable",
      "type": "constructor"
    },
    {
      "anonymous": false,
      "inputs": [
        {
          "indexed": true,
          "internalType": "address",
          "name": "previousTreasury",
          "type": "address"
        },
        {
          "indexed": true,
          "internalType": "address",
          "name": "newTreasury",
          "type": "address"
        }
      ],
      "name": "TreasuryTransferred",
      "type": "event"
    },
    {
      "inputs": [],
      "name": "_10MB",
      "outputs": [
        {
          "internalType": "address",
          "name": "",
          "type": "address"
        }
      ],
      "stateMutability": "view",
      "type": "function"
    },
    {
      "inputs": [],
      "name": "_10SHARE",
      "outputs": [
        {
          "internalType": "address",
          "name": "",
          "type": "address"
        }
      ],
      "stateMutability": "view",
      "type": "function"
    },
    {
      "inputs": [],
      "name": "collateral",
      "outputs": [
        {
          "internalType": "address",
          "name": "",
          "type": "address"
        }
      ],
      "stateMutability": "view",
      "type": "function"
    },
    {
      "inputs": [],
      "name": "collateralDollarBalance",
      "outputs": [
        {
          "internalType": "uint256",
          "name": "",
          "type": "uint256"
        }
      ],
      "stateMutability": "view",
      "type": "function"
    },
    {
      "inputs": [],
      "name": "collectRedemption",
      "outputs": [],
      "stateMutability": "nonpayable",
      "type": "function"
    },
    {
      "inputs": [],
      "name": "getCollateralPrice",
      "outputs": [
        {
          "internalType": "uint256",
          "name": "",
          "type": "uint256"
        }
      ],
      "stateMutability": "view",
      "type": "function"
    },
    {
      "inputs": [],
      "name": "getCollateralToken",
      "outputs": [
        {
          "internalType": "address",
          "name": "",
          "type": "address"
        }
      ],
      "stateMutability": "view",
      "type": "function"
    },
    {
      "inputs": [],
      "name": "info",
      "outputs": [
        {
          "internalType": "uint256",
          "name": "",
          "type": "uint256"
        },
        {
          "internalType": "uint256",
          "name": "",
          "type": "uint256"
        },
        {
          "internalType": "uint256",
          "name": "",
          "type": "uint256"
        },
        {
          "internalType": "uint256",
          "name": "",
          "type": "uint256"
        },
        {
          "internalType": "uint256",
          "name": "",
          "type": "uint256"
        },
        {
          "internalType": "bool",
          "name": "",
          "type": "bool"
        },
        {
          "internalType": "bool",
          "name": "",
          "type": "bool"
        }
      ],
      "stateMutability": "view",
      "type": "function"
    },
    {
      "inputs": [
        {
          "internalType": "address",
          "name": "",
          "type": "address"
        }
      ],
      "name": "last_redeemed",
      "outputs": [
        {
          "internalType": "uint256",
          "name": "",
          "type": "uint256"
        }
      ],
      "stateMutability": "view",
      "type": "function"
    },
    {
      "inputs": [
        {
          "internalType": "address",
          "name": "_new_pool",
          "type": "address"
        }
      ],
      "name": "migrate",
      "outputs": [],
      "stateMutability": "nonpayable",
      "type": "function"
    },
    {
      "inputs": [],
      "name": "migrated",
      "outputs": [
        {
          "internalType": "bool",
          "name": "",
          "type": "bool"
        }
      ],
      "stateMutability": "view",
      "type": "function"
    },
    {
      "inputs": [
        {
          "internalType": "uint256",
          "name": "_collateral_amount",
          "type": "uint256"
        },
        {
          "internalType": "uint256",
          "name": "_share_amount",
          "type": "uint256"
        },
        {
          "internalType": "uint256",
          "name": "_dollar_out_min",
          "type": "uint256"
        }
      ],
      "name": "mint",
      "outputs": [],
      "stateMutability": "nonpayable",
      "type": "function"
    },
    {
      "inputs": [],
      "name": "mint_paused",
      "outputs": [
        {
          "internalType": "bool",
          "name": "",
          "type": "bool"
        }
      ],
      "stateMutability": "view",
      "type": "function"
    },
    {
      "inputs": [],
      "name": "operator",
      "outputs": [
        {
          "internalType": "address",
          "name": "",
          "type": "address"
        }
      ],
      "stateMutability": "view",
      "type": "function"
    },
    {
      "inputs": [],
      "name": "pool_ceiling",
      "outputs": [
        {
          "internalType": "uint256",
          "name": "",
          "type": "uint256"
        }
      ],
      "stateMutability": "view",
      "type": "function"
    },
    {
      "inputs": [
        {
          "internalType": "uint256",
          "name": "_dollar_amount",
          "type": "uint256"
        },
        {
          "internalType": "uint256",
          "name": "_share_out_min",
          "type": "uint256"
        },
        {
          "internalType": "uint256",
          "name": "_collateral_out_min",
          "type": "uint256"
        }
      ],
      "name": "redeem",
      "outputs": [],
      "stateMutability": "nonpayable",
      "type": "function"
    },
    {
      "inputs": [
        {
          "internalType": "address",
          "name": "",
          "type": "address"
        }
      ],
      "name": "redeem_collateral_balances",
      "outputs": [
        {
          "internalType": "uint256",
          "name": "",
          "type": "uint256"
        }
      ],
      "stateMutability": "view",
      "type": "function"
    },
    {
      "inputs": [],
      "name": "redeem_paused",
      "outputs": [
        {
          "internalType": "bool",
          "name": "",
          "type": "bool"
        }
      ],
      "stateMutability": "view",
      "type": "function"
    },
    {
      "inputs": [
        {
          "internalType": "address",
          "name": "",
          "type": "address"
        }
      ],
      "name": "redeem_share_balances",
      "outputs": [
        {
          "internalType": "uint256",
          "name": "",
          "type": "uint256"
        }
      ],
      "stateMutability": "view",
      "type": "function"
    },
    {
      "inputs": [],
      "name": "redemption_delay",
      "outputs": [
        {
          "internalType": "uint256",
          "name": "",
          "type": "uint256"
        }
      ],
      "stateMutability": "view",
      "type": "function"
    },
    {
      "inputs": [
        {
          "internalType": "uint256",
          "name": "_pool_ceiling",
          "type": "uint256"
        }
      ],
      "name": "setPoolCeiling",
      "outputs": [],
      "stateMutability": "nonpayable",
      "type": "function"
    },
    {
      "inputs": [
        {
          "internalType": "uint256",
          "name": "_redemption_delay",
          "type": "uint256"
        }
      ],
      "name": "setRedemptionDelay",
      "outputs": [],
      "stateMutability": "nonpayable",
      "type": "function"
    },
    {
      "inputs": [
        {
          "internalType": "address",
          "name": "_treasury",
          "type": "address"
        }
      ],
      "name": "setTreasury",
      "outputs": [],
      "stateMutability": "nonpayable",
      "type": "function"
    },
    {
      "inputs": [],
      "name": "toggleMinting",
      "outputs": [],
      "stateMutability": "nonpayable",
      "type": "function"
    },
    {
      "inputs": [],
      "name": "toggleRedeeming",
      "outputs": [],
      "stateMutability": "nonpayable",
      "type": "function"
    },
    {
      "inputs": [
        {
          "internalType": "uint256",
          "name": "amount",
          "type": "uint256"
        }
      ],
      "name": "transferCollateralToTreasury",
      "outputs": [],
      "stateMutability": "nonpayable",
      "type": "function"
    },
    {
      "inputs": [],
      "name": "treasury",
      "outputs": [
        {
          "internalType": "address",
          "name": "",
          "type": "address"
        }
      ],
      "stateMutability": "view",
      "type": "function"
    },
    {
      "inputs": [],
      "name": "unclaimed_pool_collateral",
      "outputs": [
        {
          "internalType": "uint256",
          "name": "",
          "type": "uint256"
        }
      ],
      "stateMutability": "view",
      "type": "function"
    },
    {
      "inputs": [],
      "name": "unclaimed_pool_share",
      "outputs": [
        {
          "internalType": "uint256",
          "name": "",
          "type": "uint256"
        }
      ],
      "stateMutability": "view",
      "type": "function"
    }
  ],
  "bytecode": "0x60806040526000600b556001600c55600d805462ffffff191690553480156200002757600080fd5b5060405162001c0838038062001c088339810160408190526200004a916200018b565b60016000819055600d80546301000000600160b81b03191633630100000002179055600280546001600160a01b03199081166001600160a01b03898116919091179092556004805482168884161781558354821687841690811790945560038054909216928616929092179055600b8390556040805163313ce56760e01b815290516200014a939263313ce56792808201926020929091829003018186803b158015620000f657600080fd5b505afa1580156200010b573d6000803e3d6000fd5b505050506040513d601f19601f82011682018060405250810190620001319190620001f1565b60ff1660126200015960201b620013311790919060201c565b600a5550620002389350505050565b600062000167828462000214565b9392505050565b80516001600160a01b03811681146200018657600080fd5b919050565b600080600080600060a08688031215620001a3578081fd5b620001ae866200016e565b9450620001be602087016200016e565b9350620001ce604087016200016e565b9250620001de606087016200016e565b9150608086015190509295509295909350565b60006020828403121562000203578081fd5b815160ff8116811462000167578182fd5b6000828210156200023357634e487b7160e01b81526011600452602481fd5b500390565b6119c080620002486000396000f3fe608060405234801561001057600080fd5b50600436106101cf5760003560e01c80639642366311610104578063d8dfeb45116100a2578063f0f4426011610071578063f0f44260146103f5578063f1a9ee0314610408578063f7683bbc1461041b578063ff626c5f14610424576101cf565b8063d8dfeb45146103a7578063daa50485146103ba578063dc0d2a98146103c2578063e86bc619146103e2576101cf565b8063c7d27228116100de578063c7d272281461035e578063c82c4d0e1461036b578063ce5494bb14610374578063d0d132f314610387576101cf565b806396423663146103325780639c84d0f514610343578063b81922051461034b576101cf565b8063570ca735116101715780637d55094d1161014b5780637d55094d146102f257806380a66d05146102fa57806385f851f21461030c57806391e203691461031f576101cf565b8063570ca735146102a457806361d027b3146102d65780636526a12a146102e9576101cf565b80632c678c64116101ad5780632c678c641461020d578063370158ea14610230578063378f3576146102715780635436713514610284576101cf565b806302acc94b146101d457806312ace5a2146101e957806315128425146101f1575b600080fd5b6101e76101e2366004611689565b61042d565b005b6101e76108b6565b6101fa600c5481565b6040519081526020015b60405180910390f35b600d546102209062010000900460ff1681565b6040519015158152602001610204565b610238610abc565b6040805197885260208801969096529486019390935260608501919091526080840152151560a0830152151560c082015260e001610204565b6101e761027f366004611659565b610b77565b6101fa610292366004611612565b60056020526000908152604090205481565b600d546102be90630100000090046001600160a01b031681565b6040516001600160a01b039091168152602001610204565b6003546102be906001600160a01b031681565b6101fa600b5481565b6101e7610c64565b600d5461022090610100900460ff1681565b6004546102be906001600160a01b031681565b6002546102be906001600160a01b031681565b6001546001600160a01b03166102be565b6101fa610ca9565b6101e7610359366004611689565b610d00565b600d546102209060ff1681565b6101fa60085481565b6101e7610382366004611612565b6110c8565b6101fa610395366004611612565b60066020526000908152604090205481565b6001546102be906001600160a01b031681565b6101e76111ea565b6101fa6103d0366004611612565b60096020526000908152604090205481565b6101e76103f0366004611659565b611238565b6101e7610403366004611612565b61126e565b6101e7610416366004611659565b6112fb565b620f42406101fa565b6101fa60075481565b600d5462010000900460ff161561045f5760405162461bcd60e51b81526004016104569061175f565b60405180910390fd5b600d5460ff16156104a65760405162461bcd60e51b8152602060048201526011602482015270135a5b9d1a5b99c81a5cc81c185d5cd959607a1b6044820152606401610456565b6000806000600360009054906101000a90046001600160a01b03166001600160a01b031663370158ea6040518163ffffffff1660e01b81526004016101006040518083038186803b1580156104fa57600080fd5b505afa15801561050e573d6000803e3d6000fd5b505050506040513d601f19601f8201168201806040525081019061053291906116b4565b50600b546007546001546040516370a0823160e01b8152306004820152989c50959a5091985096506105db958d95506105d5949193506001600160a01b0390911691506370a08231906024015b60206040518083038186803b15801561059757600080fd5b505afa1580156105ab573d6000803e3d6000fd5b505050506040513d601f19601f820116820180604052508101906105cf9190611671565b90611331565b90611344565b11156106185760405162461bcd60e51b815260206004820152600c60248201526b3e706f6f6c4365696c696e6760a01b6044820152606401610456565b620f42406000808415610695576000610657620f424061065186600a54600a6106419190611844565b61064b908f611912565b90611350565b9061135c565b905061066a8661065183620f4240611350565b9250620f424086101561068f5761068c87610651620f424061064b8786611331565b91505b506106ac565b6106a6620f42406106518a89611350565b91508790505b60006106c96106c2620f42406106518689611350565b8490611331565b9050808811156107075760405162461bcd60e51b81526020600482015260096024820152683e736c69707061676560b81b6044820152606401610456565b81156107b3578882111561074d5760405162461bcd60e51b815260206004820152600d60248201526c3c736861726542616c616e636560981b6044820152606401610456565b600480546040516305060b2d60e11b81523392810192909252602482018490526001600160a01b031690630a0c165a90604401600060405180830381600087803b15801561079a57600080fd5b505af11580156107ae573d6000803e3d6000fd5b505050505b8915610845576001546040516323b872dd60e01b8152336004820152306024820152604481018c90526001600160a01b03909116906323b872dd90606401602060405180830381600087803b15801561080b57600080fd5b505af115801561081f573d6000803e3d6000fd5b505050506040513d601f19601f820116820180604052508101906108439190611639565b505b6002546040516306203eab60e11b8152336004820152602481018390526001600160a01b0390911690630c407d56906044015b600060405180830381600087803b15801561089257600080fd5b505af11580156108a6573d6000803e3d6000fd5b5050505050505050505050505050565b600c543360009081526009602052604090205443916108d59190611344565b11156109175760405162461bcd60e51b81526020600482015260116024820152703c726564656d7074696f6e5f64656c617960781b6044820152606401610456565b336000908152600560205260408120548190819081901561095e5733600090815260056020526040812080549190556008549092506109569083611331565b600855600193505b336000908152600660205260409020541561099d575033600090815260066020526040812080549190556007546109959082611331565b600755600192505b8315610a2a576004805460405163a9059cbb60e01b81523392810192909252602482018490526001600160a01b03169063a9059cbb90604401602060405180830381600087803b1580156109f057600080fd5b505af1158015610a04573d6000803e3d6000fd5b505050506040513d601f19601f82011682018060405250810190610a289190611639565b505b8215610ab65760015460405163a9059cbb60e01b8152336004820152602481018390526001600160a01b039091169063a9059cbb90604401602060405180830381600087803b158015610a7c57600080fd5b505af1158015610a90573d6000803e3d6000fd5b505050506040513d601f19601f82011682018060405250810190610ab49190611639565b505b50505050565b600b546001546040516370a0823160e01b8152306004820152600092839283928392839283928392916001600160a01b0316906370a082319060240160206040518083038186803b158015610b1057600080fd5b505afa158015610b24573d6000803e3d6000fd5b505050506040513d601f19601f82011682018060405250810190610b489190611671565b600754600854620f4240600d54949c939b509199509750955060ff808316955061010090920490911692509050565b6003546001600160a01b03163314610bbd5760405162461bcd60e51b815260206004820152600960248201526821747265617375727960b81b6044820152606401610456565b60008111610bfa5760405162461bcd60e51b815260206004820152600a6024820152691e995c9bd05b5bdd5b9d60b21b6044820152606401610456565b6003546001600160a01b0316610c445760405162461bcd60e51b815260206004820152600f60248201526e696e76616c6964547265617375727960881b6044820152606401610456565b600354600154610c61916001600160a01b03918216911683611368565b50565b600d54630100000090046001600160a01b03163314610c955760405162461bcd60e51b815260040161045690611781565b600d805460ff19811660ff90911615179055565b600080620f42409050610cfa600a54600a610cc49190611844565b6007546001546040516370a0823160e01b815230600482015261064b92916001600160a01b0316906370a082319060240161057f565b91505090565b600d5462010000900460ff1615610d295760405162461bcd60e51b81526004016104569061175f565b600d54610100900460ff1615610d775760405162461bcd60e51b815260206004820152601360248201527214995919595b5a5b99c81a5cc81c185d5cd959606a1b6044820152606401610456565b6000806000600360009054906101000a90046001600160a01b03166001600160a01b031663370158ea6040518163ffffffff1660e01b81526004016101006040518083038186803b158015610dcb57600080fd5b505afa158015610ddf573d6000803e3d6000fd5b505050506040513d601f19601f82011682018060405250810190610e0391906116b4565b97505050955050509350506000610e1a620f424090565b90506000610e39610e32620f42406106518b87611350565b8990611331565b9050600080620f4240861015610e7d576000610e66610e5f620f4240610651878b611350565b8590611331565b9050610e798861065183620f4240611350565b9150505b8515610ec0576000610ea9620f42406106518961064b600a54600a610ea29190611844565b899061135c565b9050610ebc8561065183620f4240611350565b9250505b6007546001546040516370a0823160e01b8152306004820152610ef692916001600160a01b0316906370a082319060240161057f565b821115610f3a5760405162461bcd60e51b81526020600482015260126024820152713c636f6c6c61746572616c426c616e61636560701b6044820152606401610456565b818811158015610f4a5750808911155b610f825760405162461bcd60e51b81526020600482015260096024820152683e736c69707061676560b81b6044820152606401610456565b8115610fc35733600090815260066020526040902054610fa29083611344565b33600090815260066020526040902055600754610fbf9083611344565b6007555b80156110045733600090815260056020526040902054610fe39082611344565b336000908152600560205260409020556008546110009082611344565b6008555b336000818152600960205260409081902043905560025490516305060b2d60e11b81526004810192909252602482018c90526001600160a01b031690630a0c165a90604401600060405180830381600087803b15801561106357600080fd5b505af1158015611077573d6000803e3d6000fd5b5050505060008111156110bc57600480546040516306203eab60e11b81523092810192909252602482018390526001600160a01b031690630c407d5690604401610878565b50505050505050505050565b6002600054141561111b5760405162461bcd60e51b815260206004820152601f60248201527f5265656e7472616e637947756172643a207265656e7472616e742063616c6c006044820152606401610456565b6002600055600d54630100000090046001600160a01b031633146111515760405162461bcd60e51b815260040161045690611781565b600d5462010000900460ff161561117a5760405162461bcd60e51b81526004016104569061175f565b600d805462ff00001916620100001790556007546001546040516370a0823160e01b81523060048201526000926111c79290916001600160a01b03909116906370a082319060240161057f565b6001549091506111e1906001600160a01b03168383611368565b50506001600055565b600d54630100000090046001600160a01b0316331461121b5760405162461bcd60e51b815260040161045690611781565b600d805461ff001981166101009182900460ff1615909102179055565b600d54630100000090046001600160a01b031633146112695760405162461bcd60e51b815260040161045690611781565b600b55565b600d54630100000090046001600160a01b0316331461129f5760405162461bcd60e51b815260040161045690611781565b6003546040516001600160a01b038084169216907febebcc22237fa047dcfebf54b185ec126c9b24d45f4bd2a18e4fa02e07308c4090600090a3600380546001600160a01b0319166001600160a01b0392909216919091179055565b600d54630100000090046001600160a01b0316331461132c5760405162461bcd60e51b815260040161045690611781565b600c55565b600061133d8284611931565b9392505050565b600061133d82846117c6565b600061133d8284611912565b600061133d82846117de565b604080516001600160a01b038416602482015260448082018490528251808303909101815260649091019091526020810180516001600160e01b031663a9059cbb60e01b1790526113ba9084906113bf565b505050565b6000611414826040518060400160405280602081526020017f5361666545524332303a206c6f772d6c6576656c2063616c6c206661696c6564815250856001600160a01b03166114919092919063ffffffff16565b8051909150156113ba57808060200190518101906114329190611639565b6113ba5760405162461bcd60e51b815260206004820152602a60248201527f5361666545524332303a204552433230206f7065726174696f6e20646964206e6044820152691bdd081cdd58d8d9595960b21b6064820152608401610456565b60606114a084846000856114a8565b949350505050565b6060824710156115095760405162461bcd60e51b815260206004820152602660248201527f416464726573733a20696e73756666696369656e742062616c616e636520666f6044820152651c8818d85b1b60d21b6064820152608401610456565b6001600160a01b0385163b6115605760405162461bcd60e51b815260206004820152601d60248201527f416464726573733a2063616c6c20746f206e6f6e2d636f6e74726163740000006044820152606401610456565b600080866001600160a01b0316858760405161157c9190611710565b60006040518083038185875af1925050503d80600081146115b9576040519150601f19603f3d011682016040523d82523d6000602084013e6115be565b606091505b50915091506115ce8282866115d9565b979650505050505050565b606083156115e857508161133d565b8251156115f85782518084602001fd5b8160405162461bcd60e51b8152600401610456919061172c565b600060208284031215611623578081fd5b81356001600160a01b038116811461133d578182fd5b60006020828403121561164a578081fd5b8151801515811461133d578182fd5b60006020828403121561166a578081fd5b5035919050565b600060208284031215611682578081fd5b5051919050565b60008060006060848603121561169d578182fd5b505081359360208301359350604090920135919050565b600080600080600080600080610100898b0312156116d0578384fd5b505086516020880151604089015160608a015160808b015160a08c015160c08d015160e0909d0151959e949d50929b919a50985090965094509092509050565b60008251611722818460208701611948565b9190910192915050565b600060208252825180602084015261174b816040850160208701611948565b601f01601f19169190910160400192915050565b6020808252600890820152671b5a59dc985d195960c21b604082015260600190565b60208082526025908201527f426f617264726f6f6d3a2063616c6c6572206973206e6f7420746865206f70656040820152643930ba37b960d91b606082015260800190565b600082198211156117d9576117d9611974565b500190565b6000826117f957634e487b7160e01b81526012600452602481fd5b500490565b80825b6001808611611810575061183b565b81870482111561182257611822611974565b8086161561182f57918102915b9490941c938002611801565b94509492505050565b600061133d600019848460008261185d5750600161133d565b8161186a5750600061133d565b8160018114611880576002811461188a576118b7565b600191505061133d565b60ff84111561189b5761189b611974565b6001841b9150848211156118b1576118b1611974565b5061133d565b5060208310610133831016604e8410600b84101617156118ea575081810a838111156118e5576118e5611974565b61133d565b6118f784848460016117fe565b80860482111561190957611909611974565b02949350505050565b600081600019048311821515161561192c5761192c611974565b500290565b60008282101561194357611943611974565b500390565b60005b8381101561196357818101518382015260200161194b565b83811115610ab65750506000910152565b634e487b7160e01b600052601160045260246000fdfea264697066735822122019979f8307b0e774638e6b654cb1fc41691b655801d20bef1ed34823750a938964736f6c63430008030033",
  "linkReferences": {},
  "deployedLinkReferences": {}
}