{
  "_format": "hh-sol-artifact-1",
  "contractName": "TaxOffice",
  "sourceName": "contracts/TaxOffice.sol",
  "abi": [
    {
      "inputs": [
        {
          "internalType": "address",
          "name": "__10MB",
          "type": "address"
        },
        {
          "internalType": "address",
          "name": "_uniRouter",
          "type": "address"
        }
      ],
      "stateMutability": "nonpayable",
      "type": "constructor"
    },
    {
      "anonymous": false,
      "inputs": [
        {
          "indexed": true,
          "internalType": "address",
          "name": "previousOperator",
          "type": "address"
        },
        {
          "indexed": true,
          "internalType": "address",
          "name": "newOperator",
          "type": "address"
        }
      ],
      "name": "OperatorTransferred",
      "type": "event"
    },
    {
      "anonymous": false,
      "inputs": [
        {
          "indexed": true,
          "internalType": "address",
          "name": "previousOwner",
          "type": "address"
        },
        {
          "indexed": true,
          "internalType": "address",
          "name": "newOwner",
          "type": "address"
        }
      ],
      "name": "OwnershipTransferred",
      "type": "event"
    },
    {
      "inputs": [],
      "name": "_10MB",
      "outputs": [
        {
          "internalType": "address",
          "name": "",
          "type": "address"
        }
      ],
      "stateMutability": "view",
      "type": "function"
    },
    {
      "inputs": [
        {
          "internalType": "uint256",
          "name": "amt10MB",
          "type": "uint256"
        },
        {
          "internalType": "uint256",
          "name": "amt10MBMin",
          "type": "uint256"
        },
        {
          "internalType": "uint256",
          "name": "amtFtmMin",
          "type": "uint256"
        }
      ],
      "name": "addLiquidityETHTaxFree",
      "outputs": [
        {
          "internalType": "uint256",
          "name": "",
          "type": "uint256"
        },
        {
          "internalType": "uint256",
          "name": "",
          "type": "uint256"
        },
        {
          "internalType": "uint256",
          "name": "",
          "type": "uint256"
        }
      ],
      "stateMutability": "payable",
      "type": "function"
    },
    {
      "inputs": [
        {
          "internalType": "address",
          "name": "token",
          "type": "address"
        },
        {
          "internalType": "uint256",
          "name": "amt10MB",
          "type": "uint256"
        },
        {
          "internalType": "uint256",
          "name": "amtToken",
          "type": "uint256"
        },
        {
          "internalType": "uint256",
          "name": "amt10MBMin",
          "type": "uint256"
        },
        {
          "internalType": "uint256",
          "name": "amtTokenMin",
          "type": "uint256"
        }
      ],
      "name": "addLiquidityTaxFree",
      "outputs": [
        {
          "internalType": "uint256",
          "name": "",
          "type": "uint256"
        },
        {
          "internalType": "uint256",
          "name": "",
          "type": "uint256"
        },
        {
          "internalType": "uint256",
          "name": "",
          "type": "uint256"
        }
      ],
      "stateMutability": "nonpayable",
      "type": "function"
    },
    {
      "inputs": [],
      "name": "disableAutoCalculateTax",
      "outputs": [],
      "stateMutability": "nonpayable",
      "type": "function"
    },
    {
      "inputs": [],
      "name": "enableAutoCalculateTax",
      "outputs": [],
      "stateMutability": "nonpayable",
      "type": "function"
    },
    {
      "inputs": [
        {
          "internalType": "address",
          "name": "_address",
          "type": "address"
        }
      ],
      "name": "excludeAddressFromTax",
      "outputs": [
        {
          "internalType": "bool",
          "name": "",
          "type": "bool"
        }
      ],
      "stateMutability": "nonpayable",
      "type": "function"
    },
    {
      "inputs": [
        {
          "internalType": "address",
          "name": "_address",
          "type": "address"
        }
      ],
      "name": "includeAddressInTax",
      "outputs": [
        {
          "internalType": "bool",
          "name": "",
          "type": "bool"
        }
      ],
      "stateMutability": "nonpayable",
      "type": "function"
    },
    {
      "inputs": [],
      "name": "isOperator",
      "outputs": [
        {
          "internalType": "bool",
          "name": "",
          "type": "bool"
        }
      ],
      "stateMutability": "view",
      "type": "function"
    },
    {
      "inputs": [],
      "name": "operator",
      "outputs": [
        {
          "internalType": "address",
          "name": "",
          "type": "address"
        }
      ],
      "stateMutability": "view",
      "type": "function"
    },
    {
      "inputs": [],
      "name": "owner",
      "outputs": [
        {
          "internalType": "address",
          "name": "",
          "type": "address"
        }
      ],
      "stateMutability": "view",
      "type": "function"
    },
    {
      "inputs": [],
      "name": "renounceOwnership",
      "outputs": [],
      "stateMutability": "nonpayable",
      "type": "function"
    },
    {
      "inputs": [
        {
          "internalType": "uint256",
          "name": "_burnThreshold",
          "type": "uint256"
        }
      ],
      "name": "setBurnThreshold",
      "outputs": [],
      "stateMutability": "nonpayable",
      "type": "function"
    },
    {
      "inputs": [
        {
          "internalType": "address",
          "name": "_taxCollectorAddress",
          "type": "address"
        }
      ],
      "name": "setTaxCollectorAddress",
      "outputs": [],
      "stateMutability": "nonpayable",
      "type": "function"
    },
    {
      "inputs": [
        {
          "internalType": "address",
          "name": "_address",
          "type": "address"
        },
        {
          "internalType": "bool",
          "name": "_excluded",
          "type": "bool"
        }
      ],
      "name": "setTaxExclusionForAddress",
      "outputs": [],
      "stateMutability": "nonpayable",
      "type": "function"
    },
    {
      "inputs": [
        {
          "internalType": "uint256",
          "name": "_taxRate",
          "type": "uint256"
        }
      ],
      "name": "setTaxRate",
      "outputs": [],
      "stateMutability": "nonpayable",
      "type": "function"
    },
    {
      "inputs": [
        {
          "internalType": "uint8",
          "name": "_index",
          "type": "uint8"
        },
        {
          "internalType": "uint256",
          "name": "_value",
          "type": "uint256"
        }
      ],
      "name": "setTaxTiersRate",
      "outputs": [
        {
          "internalType": "bool",
          "name": "",
          "type": "bool"
        }
      ],
      "stateMutability": "nonpayable",
      "type": "function"
    },
    {
      "inputs": [
        {
          "internalType": "uint8",
          "name": "_index",
          "type": "uint8"
        },
        {
          "internalType": "uint256",
          "name": "_value",
          "type": "uint256"
        }
      ],
      "name": "setTaxTiersTwap",
      "outputs": [
        {
          "internalType": "bool",
          "name": "",
          "type": "bool"
        }
      ],
      "stateMutability": "nonpayable",
      "type": "function"
    },
    {
      "inputs": [
        {
          "internalType": "address",
          "name": "__10MBOracle",
          "type": "address"
        }
      ],
      "name": "setTaxable10MBOracle",
      "outputs": [],
      "stateMutability": "nonpayable",
      "type": "function"
    },
    {
      "inputs": [
        {
          "internalType": "address",
          "name": "",
          "type": "address"
        }
      ],
      "name": "taxExclusionEnabled",
      "outputs": [
        {
          "internalType": "bool",
          "name": "",
          "type": "bool"
        }
      ],
      "stateMutability": "view",
      "type": "function"
    },
    {
      "inputs": [
        {
          "internalType": "address",
          "name": "_sender",
          "type": "address"
        },
        {
          "internalType": "address",
          "name": "_recipient",
          "type": "address"
        },
        {
          "internalType": "uint256",
          "name": "_amt",
          "type": "uint256"
        }
      ],
      "name": "taxFreeTransferFrom",
      "outputs": [],
      "stateMutability": "nonpayable",
      "type": "function"
    },
    {
      "inputs": [],
      "name": "taxRate",
      "outputs": [
        {
          "internalType": "uint256",
          "name": "",
          "type": "uint256"
        }
      ],
      "stateMutability": "view",
      "type": "function"
    },
    {
      "inputs": [
        {
          "internalType": "address",
          "name": "newOperator_",
          "type": "address"
        }
      ],
      "name": "transferOperator",
      "outputs": [],
      "stateMutability": "nonpayable",
      "type": "function"
    },
    {
      "inputs": [
        {
          "internalType": "address",
          "name": "newOwner",
          "type": "address"
        }
      ],
      "name": "transferOwnership",
      "outputs": [],
      "stateMutability": "nonpayable",
      "type": "function"
    },
    {
      "inputs": [
        {
          "internalType": "address",
          "name": "_newTaxOffice",
          "type": "address"
        }
      ],
      "name": "transferTaxOffice",
      "outputs": [],
      "stateMutability": "nonpayable",
      "type": "function"
    },
    {
      "inputs": [],
      "name": "uniRouter",
      "outputs": [
        {
          "internalType": "address",
          "name": "",
          "type": "address"
        }
      ],
      "stateMutability": "view",
      "type": "function"
    }
  ],
  "bytecode": "0x60806040523480156200001157600080fd5b5060405162001f9a38038062001f9a8339810160408190526200003491620001d2565b6200003f3362000165565b600180546001600160a01b031916339081179091556040516000907f74da04524d50c64947f5dd5381ef1a4dca5cba8ed1d816243f9e48aa0b5617ed908290a36001600160a01b038216620000db5760405162461bcd60e51b815260206004820152601960248201527f5f31306d6220616464726573732063616e6e6f7420626520300000000000000060448201526064015b60405180910390fd5b6001600160a01b038116620001335760405162461bcd60e51b815260206004820152601d60248201527f756e69526f7574657220616464726573732063616e6e6f7420626520300000006044820152606401620000d2565b600280546001600160a01b039384166001600160a01b0319918216179091556003805492909316911617905562000209565b600080546001600160a01b038381166001600160a01b0319831681178455604051919092169283917f8be0079c531659141344cd1fd0a4f28419497f9722a3daafe3b4186f6b6457e09190a35050565b80516001600160a01b0381168114620001cd57600080fd5b919050565b60008060408385031215620001e5578182fd5b620001f083620001b5565b91506200020060208401620001b5565b90509250929050565b611d8180620002196000396000f3fe6080604052600436106101665760003560e01c80637fcd79c7116100d1578063be94f86b1161008a578063e1d8752e11610064578063e1d8752e1461043d578063f1efacf91461045d578063f2fde38b1461047d578063ff87fc7c1461049d57610166565b8063be94f86b146103dd578063c6d69a30146103fd578063d1d31a371461041d57610166565b80637fcd79c71461031f5780638da5cb5b1461033f5780639d6b5f211461035d578063a0e47bf61461037d578063b601219d1461039d578063b87c5a4a146103bd57610166565b806365bbacd91161012357806365bbacd91461026457806366206ce91461027957806369356d4714610299578063715018a6146102b957806373baccc0146102ce578063771a3a1d146102fc57610166565b806313762bdc1461016b57806317081a7c146101b057806319db099d146101d257806329605e77146101f25780634456eda214610212578063570ca73514610232575b600080fd5b34801561017757600080fd5b5061019b610186366004611a62565b60046020526000908152604090205460ff1681565b60405190151581526020015b60405180910390f35b3480156101bc57600080fd5b506101d06101cb366004611a62565b6104b2565b005b3480156101de57600080fd5b5061019b6101ed366004611a62565b610548565b3480156101fe57600080fd5b506101d061020d366004611a62565b610586565b34801561021e57600080fd5b506001546001600160a01b0316331461019b565b34801561023e57600080fd5b506001546001600160a01b03165b6040516001600160a01b0390911681526020016101a7565b34801561027057600080fd5b506101d06105bc565b34801561028557600080fd5b5061019b610294366004611bd2565b610650565b3480156102a557600080fd5b506101d06102b4366004611a62565b61070c565b3480156102c557600080fd5b506101d0610768565b6102e16102dc366004611b7a565b61079e565b604080519384526020840192909252908201526060016101a7565b34801561030857600080fd5b50610311610a17565b6040519081526020016101a7565b34801561032b57600080fd5b506101d061033a366004611ab7565b610a99565b34801561034b57600080fd5b506000546001600160a01b031661024c565b34801561036957600080fd5b506101d0610378366004611b4a565b610aee565b34801561038957600080fd5b5060035461024c906001600160a01b031681565b3480156103a957600080fd5b5060025461024c906001600160a01b031681565b3480156103c957600080fd5b5061019b6103d8366004611bd2565b610b49565b3480156103e957600080fd5b5061019b6103f8366004611a62565b610c02565b34801561040957600080fd5b506101d0610418366004611b4a565b610c38565b34801561042957600080fd5b506101d0610438366004611a62565b610ce5565b34801561044957600080fd5b506101d0610458366004611a7c565b610d41565b34801561046957600080fd5b506102e1610478366004611aed565b610e4e565b34801561048957600080fd5b506101d0610498366004611a62565b61121c565b3480156104a957600080fd5b506101d06112b4565b6001546001600160a01b031633146104e55760405162461bcd60e51b81526004016104dc90611caa565b60405180910390fd5b60025460405163273b865d60e01b81526001600160a01b0383811660048301529091169063273b865d906024015b600060405180830381600087803b15801561052d57600080fd5b505af1158015610541573d6000803e3d6000fd5b5050505050565b6001546000906001600160a01b031633146105755760405162461bcd60e51b81526004016104dc90611caa565b61057e8261132e565b90505b919050565b6000546001600160a01b031633146105b05760405162461bcd60e51b81526004016104dc90611c75565b6105b98161143a565b50565b6001546001600160a01b031633146105e65760405162461bcd60e51b81526004016104dc90611caa565b600260009054906101000a90046001600160a01b03166001600160a01b03166365bbacd96040518163ffffffff1660e01b8152600401600060405180830381600087803b15801561063657600080fd5b505af115801561064a573d6000803e3d6000fd5b50505050565b6001546000906001600160a01b0316331461067d5760405162461bcd60e51b81526004016104dc90611caa565b6002546040516366206ce960e01b815260ff85166004820152602481018490526001600160a01b03909116906366206ce9906044015b602060405180830381600087803b1580156106cd57600080fd5b505af11580156106e1573d6000803e3d6000fd5b505050506040513d601f19601f820116820180604052508101906107059190611b2e565b9392505050565b6001546001600160a01b031633146107365760405162461bcd60e51b81526004016104dc90611caa565b6002546040516369356d4760e01b81526001600160a01b038381166004830152909116906369356d4790602401610513565b6000546001600160a01b031633146107925760405162461bcd60e51b81526004016104dc90611c75565b61079c60006114fe565b565b6000808085158015906107b057503415155b6107f15760405162461bcd60e51b81526020600482015260126024820152710616d6f756e74732063616e277420626520360741b60448201526064016104dc565b6107fa3361154e565b506002546040516323b872dd60e01b81526001600160a01b03909116906323b872dd9061082f90339030908b90600401611c1e565b602060405180830381600087803b15801561084957600080fd5b505af115801561085d573d6000803e3d6000fd5b505050506040513d601f19601f820116820180604052508101906108819190611b2e565b5060025460035461089e916001600160a01b039081169116611604565b6108a73361132e565b5060035460025460405163f305d71960e01b81526001600160a01b0391821660048201526024810189905260448101889052606481018790523360848201524260a48201526000928392839291169063f305d71990349060c4016060604051808303818588803b15801561091a57600080fd5b505af115801561092e573d6000803e3d6000fd5b50505050506040513d601f19601f820116820180604052508101906109539190611ba5565b9194509250905060006109668a856116a1565b1115610a08576002546001600160a01b031663a9059cbb336109888c876116a1565b6040516001600160e01b031960e085901b1681526001600160a01b0390921660048301526024820152604401602060405180830381600087803b1580156109ce57600080fd5b505af11580156109e2573d6000803e3d6000fd5b505050506040513d601f19601f82011682018060405250810190610a069190611b2e565b505b91989097509095509350505050565b6002546040805163771a3a1d60e01b815290516000926001600160a01b03169163771a3a1d916004808301926020929190829003018186803b158015610a5c57600080fd5b505afa158015610a70573d6000803e3d6000fd5b505050506040513d601f19601f82011682018060405250810190610a949190611b62565b905090565b6001546001600160a01b03163314610ac35760405162461bcd60e51b81526004016104dc90611caa565b6001600160a01b03919091166000908152600460205260409020805460ff1916911515919091179055565b6001546001600160a01b03163314610b185760405162461bcd60e51b81526004016104dc90611caa565b600254604051639d6b5f2160e01b8152600481018390526001600160a01b0390911690639d6b5f2190602401610513565b6001546000906001600160a01b03163314610b765760405162461bcd60e51b81526004016104dc90611caa565b610bb8821115610bc85760405162461bcd60e51b815260206004820152601a60248201527f74617820657175616c206f72206c657373207468616e2033302500000000000060448201526064016104dc565b600254604051635c3e2d2560e11b815260ff85166004820152602481018490526001600160a01b039091169063b87c5a4a906044016106b3565b6001546000906001600160a01b03163314610c2f5760405162461bcd60e51b81526004016104dc90611caa565b61057e8261154e565b6001546001600160a01b03163314610c625760405162461bcd60e51b81526004016104dc90611caa565b610bb8811115610cb45760405162461bcd60e51b815260206004820152601a60248201527f74617820657175616c206f72206c657373207468616e2033302500000000000060448201526064016104dc565b600254604051630c6d69a360e41b8152600481018390526001600160a01b039091169063c6d69a3090602401610513565b6001546001600160a01b03163314610d0f5760405162461bcd60e51b81526004016104dc90611caa565b600254604051631f83ebb560e11b81526001600160a01b03838116600483015290911690633f07d76a90602401610513565b3360009081526004602052604090205460ff16610db45760405162461bcd60e51b815260206004820152602b60248201527f41646472657373206e6f7420617070726f76656420666f72207461782066726560448201526a65207472616e736665727360a81b60648201526084016104dc565b610dbd8361154e565b506002546040516323b872dd60e01b81526001600160a01b03909116906323b872dd90610df290869086908690600401611c1e565b602060405180830381600087803b158015610e0c57600080fd5b505af1158015610e20573d6000803e3d6000fd5b505050506040513d601f19601f82011682018060405250810190610e449190611b2e565b5061064a8361132e565b600080808615801590610e6057508515155b610ea15760405162461bcd60e51b81526020600482015260126024820152710616d6f756e74732063616e277420626520360741b60448201526064016104dc565b610eaa3361154e565b506002546040516323b872dd60e01b81526001600160a01b03909116906323b872dd90610edf90339030908c90600401611c1e565b602060405180830381600087803b158015610ef957600080fd5b505af1158015610f0d573d6000803e3d6000fd5b505050506040513d601f19601f82011682018060405250810190610f319190611b2e565b506040516323b872dd60e01b81526001600160a01b038916906323b872dd90610f6290339030908b90600401611c1e565b602060405180830381600087803b158015610f7c57600080fd5b505af1158015610f90573d6000803e3d6000fd5b505050506040513d601f19601f82011682018060405250810190610fb49190611b2e565b50600254600354610fd1916001600160a01b039081169116611604565b600354610fe89089906001600160a01b0316611604565b610ff13361132e565b5060035460025460405162e8e33760e81b81526001600160a01b0391821660048201528a82166024820152604481018a9052606481018990526084810188905260a481018790523360c48201524260e48201526000928392839291169063e8e337009061010401606060405180830381600087803b15801561107257600080fd5b505af1158015611086573d6000803e3d6000fd5b505050506040513d601f19601f820116820180604052508101906110aa9190611ba5565b9194509250905060006110bd8b856116a1565b111561115f576002546001600160a01b031663a9059cbb336110df8d876116a1565b6040516001600160e01b031960e085901b1681526001600160a01b0390921660048301526024820152604401602060405180830381600087803b15801561112557600080fd5b505af1158015611139573d6000803e3d6000fd5b505050506040513d601f19601f8201168201806040525081019061115d9190611b2e565b505b600061116b8a846116a1565b111561120b576001600160a01b038b1663a9059cbb3361118b8c866116a1565b6040516001600160e01b031960e085901b1681526001600160a01b0390921660048301526024820152604401602060405180830381600087803b1580156111d157600080fd5b505af11580156111e5573d6000803e3d6000fd5b505050506040513d601f19601f820116820180604052508101906112099190611b2e565b505b919a90995090975095505050505050565b6000546001600160a01b031633146112465760405162461bcd60e51b81526004016104dc90611c75565b6001600160a01b0381166112ab5760405162461bcd60e51b815260206004820152602660248201527f4f776e61626c653a206e6577206f776e657220697320746865207a65726f206160448201526564647265737360d01b60648201526084016104dc565b6105b9816114fe565b6001546001600160a01b031633146112de5760405162461bcd60e51b81526004016104dc90611caa565b600260009054906101000a90046001600160a01b03166001600160a01b031663ff87fc7c6040518163ffffffff1660e01b8152600401600060405180830381600087803b15801561063657600080fd5b60025460405163ebca1bd960e01b81526001600160a01b038381166004830152600092169063ebca1bd990602401602060405180830381600087803b15801561137657600080fd5b505af115801561138a573d6000803e3d6000fd5b505050506040513d601f19601f820116820180604052508101906113ae9190611b2e565b15610581576002546040516393995d4b60e01b81526001600160a01b038481166004830152909116906393995d4b906024015b602060405180830381600087803b1580156113fb57600080fd5b505af115801561140f573d6000803e3d6000fd5b505050506040513d601f19601f820116820180604052508101906114339190611b2e565b9050610581565b6001600160a01b0381166114a65760405162461bcd60e51b815260206004820152602d60248201527f6f70657261746f723a207a65726f206164647265737320676976656e20666f7260448201526c103732bb9037b832b930ba37b960991b60648201526084016104dc565b6040516001600160a01b038216906000907f74da04524d50c64947f5dd5381ef1a4dca5cba8ed1d816243f9e48aa0b5617ed908290a3600180546001600160a01b0319166001600160a01b0392909216919091179055565b600080546001600160a01b038381166001600160a01b0319831681178455604051919092169283917f8be0079c531659141344cd1fd0a4f28419497f9722a3daafe3b4186f6b6457e09190a35050565b60025460405163ebca1bd960e01b81526001600160a01b038381166004830152600092169063ebca1bd990602401602060405180830381600087803b15801561159657600080fd5b505af11580156115aa573d6000803e3d6000fd5b505050506040513d601f19601f820116820180604052508101906115ce9190611b2e565b61058157600254604051631bac736760e11b81526001600160a01b03848116600483015290911690633758e6ce906024016113e1565b604051636eb1769f60e11b81523060048201526001600160a01b03828116602483015283169063dd62ed3e9060440160206040518083038186803b15801561164b57600080fd5b505afa15801561165f573d6000803e3d6000fd5b505050506040513d601f19601f820116820180604052508101906116839190611b62565b61169d5761169d6001600160a01b038316826000196116ad565b5050565b60006107058284611cee565b8015806117365750604051636eb1769f60e11b81523060048201526001600160a01b03838116602483015284169063dd62ed3e9060440160206040518083038186803b1580156116fc57600080fd5b505afa158015611710573d6000803e3d6000fd5b505050506040513d601f19601f820116820180604052508101906117349190611b62565b155b6117a15760405162461bcd60e51b815260206004820152603660248201527f5361666545524332303a20617070726f76652066726f6d206e6f6e2d7a65726f60448201527520746f206e6f6e2d7a65726f20616c6c6f77616e636560501b60648201526084016104dc565b604080516001600160a01b038416602482015260448082018490528251808303909101815260649091019091526020810180516001600160e01b031663095ea7b360e01b1790526117f39084906117f8565b505050565b600061184d826040518060400160405280602081526020017f5361666545524332303a206c6f772d6c6576656c2063616c6c206661696c6564815250856001600160a01b03166118ca9092919063ffffffff16565b8051909150156117f3578080602001905181019061186b9190611b2e565b6117f35760405162461bcd60e51b815260206004820152602a60248201527f5361666545524332303a204552433230206f7065726174696f6e20646964206e6044820152691bdd081cdd58d8d9595960b21b60648201526084016104dc565b60606118d984846000856118e1565b949350505050565b6060824710156119425760405162461bcd60e51b815260206004820152602660248201527f416464726573733a20696e73756666696369656e742062616c616e636520666f6044820152651c8818d85b1b60d21b60648201526084016104dc565b6001600160a01b0385163b6119995760405162461bcd60e51b815260206004820152601d60248201527f416464726573733a2063616c6c20746f206e6f6e2d636f6e747261637400000060448201526064016104dc565b600080866001600160a01b031685876040516119b59190611c02565b60006040518083038185875af1925050503d80600081146119f2576040519150601f19603f3d011682016040523d82523d6000602084013e6119f7565b606091505b5091509150611a07828286611a12565b979650505050505050565b60608315611a21575081610705565b825115611a315782518084602001fd5b8160405162461bcd60e51b81526004016104dc9190611c42565b80356001600160a01b038116811461058157600080fd5b600060208284031215611a73578081fd5b61070582611a4b565b600080600060608486031215611a90578182fd5b611a9984611a4b565b9250611aa760208501611a4b565b9150604084013590509250925092565b60008060408385031215611ac9578182fd5b611ad283611a4b565b91506020830135611ae281611d3d565b809150509250929050565b600080600080600060a08688031215611b04578081fd5b611b0d86611a4b565b97602087013597506040870135966060810135965060800135945092505050565b600060208284031215611b3f578081fd5b815161070581611d3d565b600060208284031215611b5b578081fd5b5035919050565b600060208284031215611b73578081fd5b5051919050565b600080600060608486031215611b8e578283fd5b505081359360208301359350604090920135919050565b600080600060608486031215611bb9578283fd5b8351925060208401519150604084015190509250925092565b60008060408385031215611be4578182fd5b823560ff81168114611bf4578283fd5b946020939093013593505050565b60008251611c14818460208701611d11565b9190910192915050565b6001600160a01b039384168152919092166020820152604081019190915260600190565b6000602082528251806020840152611c61816040850160208701611d11565b601f01601f19169190910160400192915050565b6020808252818101527f4f776e61626c653a2063616c6c6572206973206e6f7420746865206f776e6572604082015260600190565b60208082526024908201527f6f70657261746f723a2063616c6c6572206973206e6f7420746865206f70657260408201526330ba37b960e11b606082015260800190565b600082821015611d0c57634e487b7160e01b81526011600452602481fd5b500390565b60005b83811015611d2c578181015183820152602001611d14565b8381111561064a5750506000910152565b80151581146105b957600080fdfea264697066735822122026307ba1ae87367b95269362e9ece4e2a6544446695cf4280239b99e8245534264736f6c63430008030033",
  "linkReferences": {},
  "deployedLinkReferences": {}
}